:020000040800F2
:10C0000068EA012001C40008311501087510010813
:10C010002D150108D5DC00081926010800000000D4
:10C02000000000000000000000000000A5C20008A1
:10C030003FDE00080000000001C30008691C010881
:10C0400025C4000825C4000825C40008AD1B01084C
:10C0500025C4000825C4000825C4000825C400081C
:10C0600025C4000825C4000825C4000825C400080C
:10C0700015DD000825C4000825DD000825C40008DA
:10C0800025C4000825C4000825C4000825C40008EC
:10C0900025C4000825C4000825C4000825C40008DC
:10C0A00025C4000825C4000825C4000825C40008CC
:10C0B00025C4000825C40008911C010825C40008F7
:10C0C00025C4000825C4000825C4000825C40008AC
:10C0D00025C400087123010825C40008E9230108CC
:10C0E00025C40008651A010825C4000825C40008F5
:10C0F00025C4000825C4000825C4000825C400087C
:10C1000025C4000825C4000825C4000825C400086B
:10C1100025C4000825C4000825C4000825C400085B
:10C1200025C4000825C4000825C4000825C400084B
:10C1300025C40008F9DE000825C4000825C400084D
:10C1400025C4000825C4000825C4000825C400082B
:10C1500025C4000825C4000825C4000825C400081B
:10C1600025C4000825C4000825C4000825C400080B
:10C1700025C4000825C4000825C4000800000000EC
:10C1800025C4000825C4000800F002F800F07AF881
:10C190000AA090E8000C82448344AAF10107DA4522
:10C1A00001D100F06FF8AFF2090EBAE80F0013F0FA
:10C1B000010F18BFFB1A43F001031847381702009C
:10C1C000581702000A444FF0000C10F8013B13F01E
:10C1D000070408BF10F8014B1D1108BF10F8015BE0
:10C1E000641E05D010F8016B641E01F8016BF9D1D3
:10C1F00013F0080F1EBF10F8014BAD1C0C1B09D12A
:10C200006D1E58BF01F801CBFAD505E014F8016B9B
:10C2100001F8016B6D1EF9D59142D6D3704700002D
:10C220000023002400250026103A28BF78C1FBD83F
:10C23000520728BF30C148BF0B60704766291EF007
:10C240009F80642900F0EA81752900F0E781782950
:10C2500000F02082632900F01887732900F01D8701
:10C26000002070471FB51EF086F800F018FB00F0A4
:10C2700079FC0400002000211DF0B8FEE0601FBD25
:10C2800010B510BD01F09EF81146FFF7EBFF0FF05F
:10C29000DBF901F0BCF803B4FFF7F2FF03BC06F0D2
:10C2A0004AFA00002C4B19680868B0E8F04F80F398
:10C2B0000988BFF36F8F4FF0000080F3118870473B
:10C2C0000000000008480068006880F308884FF00C
:10C2D000000080F3148862B661B6BFF34F8FBFF3DE
:10C2E0006F8F00DF00BF00BF08ED00E0DFF80C003B
:10C2F000016841F470010160704700BF88ED00E003
:10C30000EFF30980BFF36F8F134B1A681EF0100F05
:10C3100008BF20ED108A20E9F04F106009B44FF0FB
:10C32000500080F31188BFF34F8FBFF36F8F1CF065
:10C33000D7FA4FF0000080F3118809BC196808682B
:10C34000B0E8F04F1EF0100F08BFB0EC108A80F379
:10C350000988BFF36F8F704714030020EFF3058047
:10C36000704700000B49D1F800C04A685CF8043BF4
:10C370001068184442F8040B8C4528BFA1F1DC0C6E
:10C380008A4228BFA1F1DC02C1F800C04A6020F057
:10C3900000407047FCE50120F0B587B007460C4629
:10C3A000002006900CB10C2C03D94FF0FF3007B0E1
:10C3B000F0BD384613F056FC0546FF2D02D16FF054
:10C3C0000100F4E703F01EF910B16FF00200EEE790
:10C3D000F3200A490860002001900395049402208C
:10C3E000059006A901A803F061F8064603F0B4F829
:10C3F0000EB90020DBE73046D9E700000C3C0240D4
:10C400000C48016841F4700101600B4880470B48FB
:10C410000047FEE7FEE7FEE7FEE7FEE7FEE7FEE792
:10C42000FEE7FEE7FEE7000005480649044A064B22
:10C430007047000088ED00E07D1C010889C10008FC
:10C4400068E6012068EA012068E60120704753EAA7
:10C45000020C00F069802DE9F04B4FF00006002B34
:10C460001FBFB3FA83F503FA05F424FA05F65E401C
:10C4700012BF1643B2FA82F502FA05F4C5F120059F
:10C480001EBF22FA05FC44EA0C04203556EA044C8F
:10C490004FEA144418BF641C4FF000084FF0000925
:10C4A000904271EB030C39D3002919BFB1FA81F71F
:10C4B00001FA07F6B0FA80F700FA07F6C7F120078D
:10C4C0001EBF20FA07FC46EA0C062037B6FBF4FC38
:10C4D000A7EB0507103F07F01F0BCBF120060CFA66
:10C4E0000BFB2CFA06F644BFB3460026202FA4BF50
:10C4F0005E464FF0000B5BEA060C08BF4FF0010BE5
:10C5000019EB0B09ABFB027C48EB0608C01B06FBD2
:10C5100002CC0BFB03CC71EB0C01C1E70B460246CE
:10C5200041464846BDE8F08B13B54FF000004FF090
:10C530000001AFF30080BDE81C4070470FB4044910
:10C5400010B503AA029800F0ADFD10BC5DF814FB15
:10C55000600000200FB41CB5074B06AA7B44694657
:10C560000090059800F06FFD0020694600F07EFD08
:10C570001CBC5DF814FB00000D0B000070B50446F8
:10C5800085690068C10601D5302600E02026C00775
:10C5900007D070BDD4E9012130469047206A401C85
:10C5A00020626D1EF6D570BD70B5044685690078B1
:10C5B000C00707D170BDD4E9012120209047206A2F
:10C5C000401C20626D1EF6D570BD70B50C46054648
:10C5D000012A05D02878800600D5EA69002302E008
:10C5E000012305E05B1C934202D2E05C0028F9D1F4
:10C5F000A869E618C01AA861286A18442862284663
:10C60000FFF7BCFF04E0D5E9012114F8010B9047C6
:10C61000B442F8D32846FFF7C7FF70BD2DE9F041BB
:10C620000646002410687529314616A510D0AFF3D0
:10C630000080002802DA404213A507E031688A072B
:10C6400001D512A502E0490704D511A5012401E096
:10C65000AFF3008000210A2206F1240709E0B0FBB5
:10C66000F2FCB0FBF2F302FB1C00303078541846A9
:10C67000491C0028F3D123462A463046BDE8F04144
:10C6800000F074BA000000002D0000002B00000034
:10C690002000000070B504460D4621461068AFF337
:10C6A00000802188090502D50F4A7A4402E00E4A2B
:10C6B0007A440E32002104F1240305E000F00F0655
:10C6C0000009965D5E54491C0028F7D120780023AC
:10C6D000000704D5702D02D009B102231132204683
:10C6E000BDE8704000F042BA820E02002DE9F05F12
:10C6F000894604464FF0000ADFF874B1FB44C0F8E5
:10C7000020A02046E1688847002874D0252806D05C
:10C71000D4E901219047206A401C2062F1E70026FD
:10C720005F462046E16888472028054607DB312D13
:10C7300005D2781910F8200C08B10643F1E7B007CC
:10C7400001D526F00406C4F81CA00027C4F818A0E0
:10C750002A2D09D0284605F0E7FF38B304EB8708F7
:10C76000303DC8F8185019E059F8041B204604EB76
:10C7700087029161E1688847012F054618D1E06979
:10C78000002820DA26F020061DE0D8F8180000EB7B
:10C79000800005EB40003038C8F818002046E168FA
:10C7A0008847054605F0C0FF0028EED1012F0AD0CA
:10C7B0002E2D08D12046E16888477F1C0546022FB0
:10C7C00046F02006C4DBA069002803DA404246F0A8
:10C7D0000106A061F00701D026F010066C2D0BD0E9
:10C7E000682D09D04C2D39D06A2D35D0742D35D017
:10C7F0007A2D33D016E038E0E1682F46204688478E
:10C80000B842054609D16C2F26D04FF48060E1680C
:10C81000064320468847054604E06C2F1AD04FF4A3
:10C82000807006430DB3A5F14100192802D82035C8
:10C8300046F400664A462946204626604E46FFF7E3
:10C84000FDFC80B101280BD0F61D26F0070000F199
:10C85000080956E74020E4E78020D8E70020D6E723
:10C8600006F104094DE7284652E7206ABDE8F09F2B
:10C87000580E02000B4910B5A1F17C020A4CC2E926
:10C880003712372106E000EB104342F82130074B06
:10C8900000FB03400B1EA1F10101F4DC10BD0120DF
:10C8A000E8E700009CE50120E119D666CD0D010006
:10C8B00040EA010310B59B070FD1042A0DD310C81D
:10C8C00008C9121F9C42F8D020BA19BA884201D96F
:10C8D000012010BD4FF0FF3010BD1AB1D30703D0B7
:10C8E000521C07E0002010BD10F8013B11F8014B6D
:10C8F0001B1B07D110F8013B11F8014B1B1B01D189
:10C90000921EF1D1184610BD10B5431C02E010F87C
:10C91000011B71B18107FAD14FF0013202C88C1AA4
:10C920008C4314EAC211F9D0C01A0A0603D0C01E03
:10C9300010BDC01A10BD0A0401D0801E10BD09022E
:10C94000FCD0401E10BD032A40F2308010F0030CD2
:10C9500000F0158011F8013BBCF1020F624498BF52
:10C9600011F801CB00F8013B38BF11F8013BA2F1EF
:10C97000040298BF00F801CB38BF00F8013B11F06A
:10C98000030300F06780083AC0F0088051F8043BC8
:10C99000083A51F804CBA0E80810F5E7121D5CBF77
:10C9A00051F8043B40F8043BAFF30080D20724BFAA
:10C9B00011F8013B11F801CB48BF11F8012B24BF3E
:10C9C00000F8013B00F801CB48BF00F8012B70478D
:10C9D000431A28BF9A427FF6B6AF032A1044114487
:10C9E00040F2268010F0030F1EBF11F8013D521EC9
:10C9F00000F8013D10F0030F7FF4F6AF11F00303D0
:10CA000000F07583083AC0F00B8051F8043D083AF5
:10CA100051F804CD40F8043D40F804CDFFF7F3BFD2
:10CA2000121D5CBF51F8043D40F8043DAFF3008097
:10CA3000D20724BF11F8013D11F801CD48BF11F80C
:10CA4000012C24BF00F8013D00F801CD48BF00F8DB
:10CA5000012C704710B5203AC0F00B80B1E8185097
:10CA6000203AA0E81850B1E81850A0E81850BFF4D8
:10CA7000F5AF5FEA027C24BFB1E81850A0E8185077
:10CA800044BF18C918C0BDE810405FEA827C24BFCB
:10CA900051F8043B40F8043B08BF7047D20728BF59
:10CAA00031F8023B48BF11F8012B28BF20F8023BA8
:10CAB00048BF00F8012B704702F0FF0343EA03224E
:10CAC00042EA024200F002B84FF000020429C0F02E
:10CAD000128010F0030C00F01B80CCF1040CBCF1B0
:10CAE000020F18BF00F8012BA8BF20F8022BA1EB02
:10CAF0000C0100F00DB85FEAC17C24BF00F8012BE7
:10CB000000F8012B48BF00F8012B70474FF00002DE
:10CB100000B5134694469646203922BFA0E80C5033
:10CB2000A0E80C50B1F12001BFF4F7AF090728BF0E
:10CB3000A0E80C5048BF0CC05DF804EB890028BF8A
:10CB400040F8042B08BF704748BF20F8022B11F0B3
:10CB5000804F18BF00F8012B70477047704770472F
:10CB6000704700000048704724E601202DE9F04797
:10CB70000D4699469246044600F12408016888064D
:10CB800004D5E06921F01001216000E00120A842F5
:10CB900001DD471B00E00027A1697A1902EB0900BB
:10CBA000081AA0612078C00602D42046FFF7E6FCF0
:10CBB000002608E0D4E901211AF806009047206A0F
:10CBC000401C761C20624E45F4DB2078C0060AD556
:10CBD0002046FFF7D3FC06E0D4E90121302090473E
:10CBE000206A401C2062381EA7F10107F4DC07E030
:10CBF000D4E9012118F805009047206A401C206202
:10CC0000281EA5F10105F3DC2046FFF7CDFC2078B6
:10CC1000000602D50220BDE8F0870120FBE770473F
:10CC20002DE9FF4F0C461E464FF0FF378BB0D2E97F
:10CC30000001DDF860800A908A46C1F30A5505B903
:10CC40003D46002108464FF00000BAF1000F00F405
:10CC5000400005DA00EB80004FF4400101EA50008B
:10CC60004FEA9059B9F1010F00DDB9460A9850EA30
:10CC70004A000ED044F61050A5F2FF3545432F145C
:10CC8000B8F1000F1ED07542291E1EDDC9F1000249
:10CC90001CE0B8F1010F4FF0000001D0302103E09B
:10CCA000F24305E02154401CB042FBDB3046002239
:10CCB000002121540B99C1F80880C1E900200FB070
:10CCC000BDE8F08FBD1B6D1CDEE74A4600DA694205
:10CCD00006A800F0C1FA06AB93E8070003AB83E8AF
:10CCE000070050460A9900F09BFB8DE80700A0F56D
:10CCF00000501F3800900398002D0ADD42F21F01FA
:10CD00004A460844002303A90390684600F004FE45
:10CD100009E0A0F500504A461F38002303A90390FC
:10CD2000684600F00EFE8DE807000004000C03D0FA
:10CD30004FF0FF30410800E01046B8F1000F03D07B
:10CD40000022009215461EE0751E05D400F0FEF983
:10CD5000303262556D1EF9D5B3460122084302D028
:10CD600000227F1C04E02078302801D100227F1EA1
:10CD7000002A099784D01DE0112D07DA00F0E6F9AA
:10CD8000303262556D1C50EA0102F5D1084302D0E1
:10CD90000098C8B10EE00021681E05E0235C625CCB
:10CDA00063542254401E491C8142F7DBAB46A81B4A
:10CDB000401E0990002004F80B000B98099AC0F857
:10CDC0000880C0E9002B7AE711264FF0000857E7EA
:10CDD0002DE9F04F88460446D21D22F0070191B09C
:10CDE000D1E90001CDE90A0105F06AFC02460B9881
:10CDF000C00F01D02D2007E02068810701D52B202E
:10CE000002E0202101EAC000032A099001D0072A8C
:10CE100005DB03464146204600F0DEF90BE12078B1
:10CE2000800601D5E06900E00620B8F1650F814673
:10CE300006D0B8F1660F18D0B8F1670F70D131E0A5
:10CE40000020B9F1110F009001DB112301E009F17D
:10CE500001030AAA01A90CA8FFF7E2FEDDE90C70A4
:10CE6000002609F10105834647E001204B4600906A
:10CE70004FF000470AAA01A90CA8FFF7D1FEDDE98F
:10CE80000DB00C995D46002610B909F101000D188E
:10CE9000B9EB050003D4C0F1FF3609F10105A5EB9C
:10CEA00009002BE0B9F1010F01DA4FF00109002070
:10CEB000B9F1110F0090484601DD112300E003464F
:10CEC0000AAA01A90CA8FFF7ABFEDDE90C704D46DC
:10CED00000268346207800070AD4AB4500DA5D4679
:10CEE00001A8012D04DD411911F8011C302907D0DA
:10CEF0004F4502DA17F1040F04DA012082460FE0F1
:10CF00006D1EEEE7002F02DCED1B3E4403E0781CB3
:10CF1000A84200DD7D1CB81B00F1010A4FF000475C
:10CF20002078000703D4AA4501DB4FF0FF3A002127
:10CF3000B7F1004F0DF143088DF8431024D00220C3
:10CF40002B23002F01DA7F422D230A21021EA0F19C
:10CF5000010000DC5FB197FBF1FC97FBF1F201FBF4
:10CF60001C7C17460CF1300C08F801CDEEE7A8F157
:10CF7000010003702188090501D5452100E06521E4
:10CF8000A0F1010800F8011C09980FA9A1EB0807FE
:10CF9000FF1D00B10120411901EBEA70A16938447D
:10CFA000081A401EA0612078C00602D42046FFF770
:10CFB000E5FA099828B1D4E901219047206A401C7C
:10CFC00020622078C00622D52046FFF7D7FA1EE05F
:10CFD000002E04DBB34502DD01A8805D00E03020B7
:10CFE000D4E901219047206A401C2062761CAAF1F6
:10CFF00001005FEA000A0AD1FFF7B4FDC0680168CA
:10D00000405CD4E901219047206A401C2062281E20
:10D01000A5F10105DCDC07E0D4E9012118F8010BDA
:10D020009047206A401C2062381EA7F10107F3DCFC
:10D030002046FFF7B9FA032011B041E601694A1C06
:10D0400002610878704700B58FB0CDE90131002149
:10D05000059105497944CDE9031011466846FFF76B
:10D0600045FB0FB000BD0000E5FFFFFF0A6802F8B6
:10D07000010B0A60704710B5436913B1AFF300802C
:10D0800001E0FFF7A2FA012010BD127800F124019F
:10D090000A7000224A700122EDE711684FF0FF325A
:10D0A000E9E70000074B70B50D467B44FFF7CBFF67
:10D0B0000446284600F042F910B14FF0FF3070BD31
:10D0C000204670BD87710000431A28BF9A427FF640
:10D0D000C1AC104410F0030F11441EBF11F8013D04
:10D0E000521E00F8013D10F0030F7FF4F6AF103A26
:10D0F000C0F00A8010B531E91850103A20E91850F4
:10D10000BFF4F9AFBDE81040530724BF31E9081060
:10D1100020E9081044BF51F8043D40F8043D12F0E6
:10D12000030F08BF7047D20728BF31F8023D48BF40
:10D1300011F8012C28BF20F8023D48BF00F8012C4F
:10D14000704700000048704704E6012030B5B0F198
:10D150000A024FEA900E71F100034EEA817EB0EBB5
:10D160000E0061EB91014FEA101E4EEA017E10EBBA
:10D170000E0041EB11114FEA102E4EEA016E10EB3A
:10D180000E0041EB11214FEA104E4EEA014E10EB1A
:10D190000E0041EB1141401841F100014FEAD0006F
:10D1A00040EA41704FEAD10110EB80054FEA81045B
:10D1B00044EA907444EB01046D1944EB0404521BDF
:10D1C000A3414FF0000348BF0A3200D530BD401CD8
:10D1D00041F1000130BD00002DE9F0411F46044639
:10D1E00003260168072A01F4006004DB08B116A5D4
:10D1F00005E016A503E008B115A500E015A521F08E
:10D2000010002060A069C01EA0610FB1401EA06187
:10D210002046FFF7B3F94FB1D4E9012138469047D2
:10D22000206A401C2062C01C206206E0206AFAE7E7
:10D23000D4E9012115F8010B9047761EF8D220465B
:10D24000FFF7B2F9BDE8F0814E414E006E616E000D
:10D25000494E4600696E66002DE9F0478146164644
:10D260008AB0354878440DC88DE80D0032487844BE
:10D27000801C03AC0DC884E80D0041F69B300844C7
:10D28000372190FBF1F290FBF1F5A5F1800501FB50
:10D2900012041B3C02D56442012000E00020DFF8AC
:10D2A00098A080460027FA44AAF1BE0A0EE0E007E3
:10D2B0000AD03246684607EB470101230AEB810199
:10D2C00000F03FFB8DE8070064107F1C002CEED1BE
:10D2D000194F7F44AE3F19E0E80715D007EB041063
:10D2E0000DF1180A90E80E008AE80E00C068F042BE
:10D2F00001D1981908903246012306A903A800F02D
:10D3000020FB03AB83E807006D10641C002DE3D104
:10D310004FF0010332466946B8F1000F03A802D06E
:10D3200000F0FAFA01E000F00CFBC9E90001C9F8CD
:10D3300008200AB0BDE8F08780030200007B00F0FF
:10D34000800070474FF0013C50F8042B51F8043B2B
:10D350009A4221D1A2EB0C03934313EACC1317D1C9
:10D3600050F8042B51F8043B9A4215D1A2EB0C0360
:10D37000934313EACC130BD150F8042B51F8043B20
:10D380009A4209D1A2EB0C03934313EACC13DBD0EE
:10D390004FF00000704700BFD01A01BAB1FA81F116
:10D3A00001F0180122FA01F0CB40C1F12001DBB2FB
:10D3B000C0B2C01A2CFA01F3D11A914311EAC31179
:10D3C000E6D170477546FFF7BDFEAE4605006946DB
:10D3D000534620F00700854618B020B5FFF724F823
:10D3E000BDE820404FF000064FF000074FF0000866
:10D3F0004FF0000B21F00701AC46ACE8C009ACE8E7
:10D40000C009ACE8C009ACE8C0098D46704710B54A
:10D410000446AFF300802046BDE81040FEF73BBF56
:10D420005FEA400C08BF91F0000F4FEA8C234FEAEF
:10D43000C12243EA51514FEA1C5018BF00F5F04099
:10D440004FEA300018BF41F000415FEA6C5C00F029
:10D450002980BCF1FF3F08BF40F080407047130CAB
:10D4600006BF12044FF0100C4FF0000C130E04BF57
:10D4700012020CF1080C130F04BF12010CF1040C82
:10D48000930F04BF92000CF1020CD30F04BF5200A3
:10D490000CF1010C11464FF00002A0F11F00A0EBAF
:10D4A0000C00704711F0004F08BF704731F0004189
:10D4B0003FF4D5AF0B0C06BF09044FF0100C4FF032
:10D4C000000C0B0E04BF09020CF1080C0B0F04BF7B
:10D4D00009010CF1040C8B0F04BF89000CF1020C44
:10D4E000CB0F04BF49000CF1010CCCF12003A0EBE1
:10D4F0000C0022FA03F302FA0CF241EA030100F1F4
:10D500000100704720F07F4C80EA030023F07F4742
:10D51000ACEB070303F57C5300F0004003F1FF037D
:10D520002DE980494FEA154B09B44FEA144325EA27
:10D530000B4E24EA03480FF2042606EB1327490892
:10D540003E785FEA320203FB0667C7F5000707FB78
:10D5500006F64FEA54374FEAD64606F1020607FBB5
:10D56000066CCCF1005C4FEA1C472CEA074C07FB29
:10D5700006F40CFB06F504EB15464FEA961634BF8D
:10D5800000204FF000404FEAD13706FB07FC4FEA7E
:10D590001C4C0CFB0BF7D21B03FB0CF761EB0701D8
:10D5A0000CFB0EF7B0EB074072EB17420CFB08F7D1
:10D5B00034BFA2EB0742B2EB074261EB17414FEADF
:10D5C0000C444FEA910706FB07FC4FEA1C4C0CFB8E
:10D5D0000BF7B0EBC74072EB573203FB0CF734BFCD
:10D5E000A2EBC742B2EBC74261EB57310CFB0EF71F
:10D5F000B0EBC70072EB57720CFB08F734BFA2EB1D
:10D60000C702B2EBC70261EB5771039F4FEA81611A
:10D6100041EA921104EBCC044FEAD1374FEA82621F
:10D6200006FB07FC42EA90124FEA80604FEA1C4C6E
:10D630000CFB0BF7D21B03FB0CF761EB07010CFB98
:10D640000EF7B0EB074072EB17420CFB08F734BF44
:10D65000A2EB0742B2EB074261EB17414FEA8C5550
:10D660004FEA910704EB9C2406FB07FC4FEA1C4C95
:10D670000CFB0BF7B0EBC74072EB573203FB0CF718
:10D6800034BFA2EBC742B2EBC74261EB57310CFB90
:10D690000EF7B0EBC70072EB57720CFB08F734BF04
:10D6A000A2EBC702B2EBC70261EB577115EB4C2539
:10D6B0004FEA816141EA92114FEA82624FEAD13723
:10D6C00042EA901206FB07FC44F100044FEA806036
:10D6D0004FEA1C4C0CFB0BF7D21B03FB0CF761EB66
:10D6E00007010CFB0EF7B0EB074072EB17420CFB87
:10D6F00008F734BFA2EB0742B2EB074261EB1741D8
:10D7000015EB1C154FEA813141EA92414FEA823212
:10D7100042EA90424FEA80304FEA0C7644F100042E
:10D7200048EA03434EEA0B484FF0000EB2EB080CF8
:10D7300071EB030724BF624639464EEB0E0E4FF0E5
:10D74000000B0018524149414BEB0B0BB2EB080C9C
:10D7500071EB03077BF1000B24BF624639464EEBA9
:10D760000E0E4FF0000B0018524149414BEB0B0BD2
:10D77000B2EB080C71EB03077BF1000B24BF624690
:10D7800039464EEB0E0E51EA020718BF46F001066D
:10D7900016EB0E7655F1000254F1000103D5BDE8F9
:10D7A0008901BDE80088BDE88901BDE80048B619D7
:10D7B000524141EB0101A3F10103704780807F7E5C
:10D7C0007D7C7B7A797877767675747372717170F7
:10D7D0006F6E6E6D6C6C6B6A6A69686867666665A9
:10D7E0006464636362616160605F5F5E5E5D5D5C37
:10D7F0005C5B5B5A5A5959585857575656555555A8
:10D800005454535352525251515050504F4F4F4E07
:10D810004E4D4D4D4C4C4C4B4B4B4A4A4A49494955
:10D820004848484747474746464645454544444497
:10D83000444343434342424242414141002B9C46C0
:10D8400030D477002BD01CB54FEA370703B44FF024
:10D8500010004FF01001BAF1000F06D0BCF1000F1C
:10D86000DCBF40F0080040F008014FF000000FBCA2
:10D87000BDE810400BF1010BBBF1010F08BF5FEADF
:10D88000170722BF12F1010211F101014FF000410F
:10D8900043F1000300F0004043EA00007047F9D371
:10D8A0005708D0E746EA064613F1400F4FEA1646FE
:10D8B0001FDD13F1200FDFBF16430A46002120337E
:10D8C0005B42BED0C3F1200746EA064602FA07F7DC
:10D8D0004FEA164646EA0706C3F1200722FA03F28A
:10D8E00001FA07F721FA03F14FF0000342EA0702B9
:10D8F000A7E746EA020646EA06464FEA164646EA21
:10D900000106BCBF46EA0646360C4FF000034FF056
:10D9100000024FF0000194E72DE9804C9A469346AF
:10D9200070B491E8380007C831EA400C48BF34EAC7
:10D93000430C03D5FFF7E6FDFFF780FFF0BCBDE821
:10D94000008C2DE9804C9A46934670B491E83800DB
:10D9500007C810F0804F08BF13F0804F03D100F0CC
:10D9600005F8FFF76BFFF0BCBDE8008C20F07F47A7
:10D9700080EA030023F07F4C07EB0C03A3F57C53F4
:10D9800000F00040A3F1FE0392F0000F00F0B3801E
:10D9900095F0000F00F077802DE901494FEA114022
:10D9A0004FEA144621EA004800FB06FC24EA064739
:10D9B00008FB06F607FB08F800FB07F718EB06481C
:10D9C0004CEB164C4FEA124B18EB07484FEA154642
:10D9D0004CEB174022EA0B4E0BFB06FC25EA0647F0
:10D9E0000EFB06F607FB0EFE0BFB07F71EEB064EC3
:10D9F0004CEB164C4FF000061EEB074E4CEB174B52
:10DA000018EB0B0840F1000018EB0E0B58EB000868
:10DA100040F100008F1A4FF000013CBFC943661B64
:10DA200014BFB5EB040C00213CBFC943F61B4FEA01
:10DA300017444EEA8E0E27EA04454FEA1C4704FBC2
:10DA400007622CEA074C05FB07F70CFB05F604FB05
:10DA50000CFC16EB074642EB174216EB0C4642EB6A
:10DA60001C421BEB060658EB0202414146EA9E06A9
:10DA700001D5BDE80189B619524141EB0101A3F17D
:10DA80000103BDE801894FEA14454FEA114724EA32
:10DA9000054621EA074C05FB07F406FB07F70CFBDC
:10DAA00006F105FB0CFC11EB074144EB17444FEA70
:10DAB000124711EB0C4144EB1C4422EA074C05FBD6
:10DAC00007F206FB07F70CFB06F605FB0CFC16EB52
:10DAD000074642EB174216EB0C4642EB1C456A1810
:10DAE00054F1000148BF7047B619524141EB0101A2
:10DAF000A3F10103704795F0000F37D04FEA1142B0
:10DB00004FEA144721EA024624EA074C02FB07F1D8
:10DB100006FB07F70CFB06F402FB0CFC14EB0744B6
:10DB200041EB17414FEA154714EB0C4441EB1C4104
:10DB300025EA074C02FB07F506FB07F70CFB06F688
:10DB400002FB0CFC16EB074645EB174516EB0C46A3
:10DB500045EB1C42121951F1000148BF7047B6193C
:10DB6000524141EB0101A3F1010370474FEA144513
:10DB70004FEA114724EA054621EA074C05FB07F165
:10DB800006FB07F70CFB06F24FF0000605FB0CFC4A
:10DB900012EB074241EB174112EB0C4251EB1C41D7
:10DBA00048BF7047921841EB0101A3F10103704790
:10DBB00010B5FF2000F028F80446552C01D10020B4
:10DBC00010BD5521FF2000F05DF8FF2000F01CF88B
:10DBD0000446552C01D10020F2E70120F0E710B5F2
:10DBE00003F072FA10BD70B506460C46154608E003
:10DBF0003046721C96B200F007F804F8010B681E5C
:10DC000085B2002DF4D170BD70B50446002603F036
:10DC10001BFB2546E11704EB11610912A02202EB60
:10DC20004101C8B203F0DCFA03F05AFBE11704EB40
:10DC300011610912A4EB0121C8B203F0D1FA03F07B
:10DC40004FFB03F001FBA12003F0CAFA03F048FBED
:10DC5000002003F08FFA064603F01CFB304670BD2F
:10DC600070B505460C46164606E02178284600F0B9
:10DC700009F8681C85B2641C301EA6F101018EB241
:10DC8000F3D170BD70B504460E4603F0DDFA2546AB
:10DC9000E11704EB11610912A02202EB4101C8B2A5
:10DCA00003F09EFA03F01CFBE11704EB116109126B
:10DCB000A4EB0121C8B203F093FA03F011FB304644
:10DCC00003F08EFA03F00CFB03F0E4FA0A2004F0F0
:10DCD0007BFE70BD00BFFEE730B502460B464FF637
:10DCE000FF70002112E0545C604000240AE000F064
:10DCF000010525B140104AF20105684000E04010DE
:10DD0000651CECB2082CF2DB4C1CA1B29942EADB98
:10DD100030BD000010B5024800F0D2FC10BD00007C
:10DD20001C16002010B5024800F0CAFC10BD00000F
:10DD30007C1600200146087810381823B0FBF3F257
:10DD40000848805CC865032A05D908686FF3090094
:10DD5000001D886503E008686FF309008865886D19
:10DD6000704700009CA30208014600208A6A8B6964
:10DD7000CBB932B1012A0DD0022A03D0032A10D127
:10DD80000EE000BFCB6A03F08073B3F1807F00D157
:10DD9000012007E0CB6AB3F1C07F00D1012001E090
:10DDA00000E000BF34E08B69B3F5005F1AD132B1F7
:10DDB000012A07D0022A03D0032A11D10AE000BFAA
:10DDC00001200EE0CB6A03F08073B3F1807F00D1B5
:10DDD000012006E0CB6AB3F1C07F00D1012000E052
:10DDE00000BF15E032B1012A05D0022A04D0032A6F
:10DDF0000CD103E000BF00BF012008E0CB6A03F0B4
:10DE00008073B3F1807F00D1012000E000BF00BF2C
:10DE1000704730B50468246824F4802405682C60B9
:10DE2000046863608468402C04D10468A2600468BC
:10DE3000E16003E00468A1600468E26030BD7047FF
:10DE4000016801F58051896921F00202016801F53C
:10DE500080518A617047016801F58051896941F0FC
:10DE60000202016801F580518A617047016801F57D
:10DE70008051896921F40052016801F580518A615D
:10DE80007047016801F58051896941F400520168C9
:10DE900001F580518A61704708B508490968C908C9
:10DEA0004FF47A72B1FBF2F14143009100BF00BF21
:10DEB00000994A1E00920029F9D108BD00000020F7
:10DEC00038B5044600200090206800F58050806935
:10DED00040F48011206800F580508161206800F5D1
:10DEE0008050806900900120FFF7D6FF00992068DC
:10DEF00000F58050816138BD10B50A49886A05F087
:10DF000059FF08B10CF0FAFD4FF480310548006864
:10DF100000F58050416140210248006800F58050C2
:10DF2000416110BD9015002030B503461479557934
:10DF300044EA0520084C0C442064D47824069578E3
:10DF400044EA0544557844EA0524157844EA050076
:10DF5000014C0C44606430BD0080024070B5AEB02E
:10DF600004460E46002526B14FF40061E160C90069
:10DF7000A1600020119012901390149015901690AB
:10DF8000E06918B94FF48060179001E00020179005
:10DF90004FF400701890002019901A901B901C905C
:10DFA0001D9040201E9000201F90209021902290D4
:10DFB0002390249025902690802027900020289060
:10DFC00029902A902B902C902D90206805687148FC
:10DFD0000540DDE9110108431399084314990843EA
:10DFE000A16808431599084316990843E168084356
:10DFF0001799084318990843199908431A9908432F
:10E000001B990843054320680560206805680120C6
:10E0100000F036FD20680560DDE91C0108431E990B
:10E0200008431F99084320990843219908432299DE
:10E030000843239908432168486020684568012007
:10E0400000F01EFD206845602498216888602598AE
:10E050002168C860206885694FF641700540DDE998
:10E06000261040EA014028990843299908432A9933
:10E0700008432B990843054320688561206885691A
:10E08000012000F0FDFC20688561DDE92C010843DA
:10E090002168C8612068C569012000F0F1FC206892
:10E0A000C561002001904FF00070029000200390A5
:10E0B0004FF40010049000200590069007900890FF
:10E0C00004200990C0050A9040120B9080010C902A
:10E0D00040120D9080200E9000200F90109020682C
:10E0E00000F5805085692C480540DDE901010843B1
:10E0F000039908430499084305990843069908437E
:10E10000079908430899084309990843054320687B
:10E1100000F580508561206800F5805085690120F8
:10E1200000F0AEFC206800F580508561DDE90A0151
:10E1300008430C9908430D9908430E9908430F9919
:10E1400040EA81001099084340F40001206800F57E
:10E1500080500160206800F580500568012000F0C3
:10E160008FFC206800F580500560A069012809D166
:10E17000206800F58050C06908490843216801F50E
:10E180008051C861002120466269FFF7CDFE2EB0A4
:10E1900070BD00000F8120FF233FDEF8400001002A
:10E1A00038B50446002000902068006820F0040084
:10E1B000216808602068006800900120FFF76CFE6D
:10E1C00000982168086038BD38B5044600200090EA
:10E1D0002068006840F0040021680860206800683A
:10E1E00000900120FFF758FE00982168086038BDB4
:10E1F00038B50446002000902068006820F0080030
:10E20000216808602068006800900120FFF744FE44
:10E2100000982168086038BD38B504460020009099
:10E220002068006840F008002168086020680068E5
:10E2300000900120FFF730FE00982168086038BD8B
:10E2400072B602E001A0FEF779F9FBE76572726F22
:10E25000720D0A0010B5002201B909E0012901D1AF
:10E260000A0205E0022901D10A0201E04FF44072DE
:10E270000E4B1B6823F440730C4C236023461B6831
:10E280001343236023461B6823F0F80323602346CF
:10E290001B68022444EAC0042343044C2360234641
:10E2A0001B6843F48033236010BD0000103C024023
:10E2B0001C48006800F40070B0B11A48006820F4EF
:10E2C00000701849086000BF0846006840F400600C
:10E2D00008600846006820F40060086000BF084637
:10E2E000006840F4007008600E48006800F4806028
:10E2F000B0B10C48006820F480600A49086000BF93
:10E300000846006840F4805008600846006820F421
:10E310008050086000BF0846006840F480600860D4
:10E3200070470000003C02400A4A126822F4407222
:10E33000084B1A601A46126842F004021A601A4624
:10E3400012684FF4803343EA00231A43014B1A60EA
:10E3500070470000103C0240074A126822F44072E5
:10E36000054B1A601A4612681A601A46126842F083
:10E3700001021A6001707047103C024010B50D494F
:10E38000096821F440710B4C21602146096841F471
:10E39000407121602146096841F00101216002605D
:10E3A00000BF00BF00BFBFF36F8F00BF00BF00BF43
:10E3B000436010BD103C0240084A126822F44072CB
:10E3C000064B1A601A46126842F480721A601A46A6
:10E3D000126842F001021A6001807047103C02404E
:10E3E000084A126822F44072064B1A601A461268F4
:10E3F00042F400721A601A46126842F001021A6072
:10E4000001607047103C02402348006800F0100093
:10E4100040B12248C06940F010002049C861102076
:10E420001D4908601C48006800F0200040B11B48EE
:10E43000C06940F008001949C861202016490860E9
:10E440001548006800F0400040B11448C06940F031
:10E4500004001249C86140200F4908600E48006856
:10E4600000F0800040B10D48C06940F002000B4947
:10E47000C8618020084908600748006800F0020071
:10E4800040B10648C06940F020000449C86102203C
:10E4900001490860704700000C3C0240C014002095
:10E4A00070B50446002500201449C86101F0E4F964
:10E4B000054609E0601C38B124B101F0DDF9401BCC
:10E4C000A04201D9032070BD0D48006800F48030DF
:10E4D0000028EFD10A48006800F0010010B10120C7
:10E4E000074908600648006800F0F20018B1FFF71D
:10E4F0008BFF0120E7E70020E5E70000C0140020C3
:10E500000C3C024070B504461D460023B5F5804F13
:10E5100013D154F822300C480340D1E9000640EAF8
:10E5200006108E6840EA06208E8940EA06408E6911
:10E530003043034344F8223003E06FF0704044F866
:10E540002200002070BD00000000F0CF10B503468F
:10E550000022086853F8202012480240D1E9010443
:10E560002043CC6820430C6920434C6920438C69CC
:10E570002043CC6920430C6A20434C6A20438C6AB8
:10E580002043CC6A2043CC6B20430C6B20430243D6
:10E590008868082801D142F04002086843F820202A
:10E5A000002010BD8000F0FF30B503460024501C51
:10E5B00053F8204004F04044D1E9000540EA05103A
:10E5C0008D6840EA05208D8940EA0545088A401E8D
:10E5D00045EA0055087D801E45EA00608D692843A4
:10E5E0000443501C43F82040002030BD70B5044661
:10E5F000A56D01F041F9064694F83500022808D0CF
:10E600008020606500BF002084F8340000BF012036
:10E6100070BD2068006820F016002168086020683E
:10E62000406920F0800021684861206C08B9A06C26
:10E6300028B12068006820F0080021680860206880
:10E64000006820F00100216808600FE001F014F973
:10E65000801B05280AD92020606500BF002084F8AF
:10E66000340000BF032084F83500D1E7206800683B
:10E6700000F001000028E9D194F85C103F208840A8
:10E68000A86000BF002084F8340000BF012084F897
:10E6900035000020BCE7014691F83500022803D080
:10E6A0008020486501207047052081F83500086802
:10E6B000006820F001000A6810600020F3E7000005
:10E6C000F8B50446002000908C4800684FF41651BD
:10E6D000B0FBF1F7A56D2E6894F85C100820884017
:10E6E000304098B12068006800F0040070B12068E4
:10E6F000006820F004002168086094F85C1008208D
:10E700008840A860606D40F00100606594F85C107E
:10E7100001208840304068B12068406900F08000E6
:10E7200040B194F85C1001208840A860606D40F012
:10E730000200606594F85C1004208840304068B1A5
:10E740002068006800F0020040B194F85C100420DA
:10E750008840A860606D40F00400606594F85C102B
:10E7600010208840304078B32068006800F008002E
:10E7700050B394F85C1010208840A86020680068AE
:10E7800000F4802080B12068006800F4002028B9DF
:10E79000206CC8B12046216C884715E0A06C98B168
:10E7A0002046A16C88470FE02068006800F4807064
:10E7B00028B92068006820F0080021680860206CF3
:10E7C00010B12046216C884794F85C1020208840C6
:10E7D0003040002865D02068006800F01000002854
:10E7E0005FD094F85C1020208840A86094F8350031
:10E7F000052828D12068006820F0160021680860EC
:10E800002068406920F0800021684861206C08B9C8
:10E81000A06C28B12068006820F00800216808601A
:10E8200094F85C103F208840A86000BF002084F866
:10E83000340000BF012084F83500206D10B120465F
:10E84000216D8847F8BD2068006800F4802080B101
:10E850002068006800F4002028B9606C10B12046E0
:10E86000616C88471DE0E06BD8B12046E16B8847BA
:10E8700017E02068006800F4807068B920680068BC
:10E8800020F010002168086000BF002084F83400E8
:10E8900000BF012084F83500E06B10B12046E16B29
:10E8A0008847606D38B3606D00F00100F0B105205D
:10E8B00084F835002068006820F0010021680860B5
:10E8C00000BF0098401C0090B84200D905E02068C5
:10E8D000006800F001000028F3D100BF00BF002055
:10E8E00084F8340000BF012084F83500E06C10B1DA
:10E8F0002046E16C884700BFA4E70000000000202C
:10E900002DE9F0410446002500F0B6FF074614B992
:10E910000120BDE8F081606A00B100BF00BF0020A7
:10E9200084F8340000BF022084F8350020680068B5
:10E9300020F00100216808600AE000F09DFFC01B84
:10E94000052805D920206065032084F83500E0E71C
:10E950002068006800F001000028EED120680568FA
:10E9600021480540D4E901010843E16808432169D1
:10E97000084361690843A1690843E1690843216AC2
:10E9800008430543606A042803D1D4E90B01084316
:10E990000543206805602068456925F00705606A21
:10E9A0000543606A04280DD1A06A0543E06A48B1B6
:10E9B0002046FFF7D9F928B140206065012084F88E
:10E9C0003500A6E7206845612046FFF7B3F9064603
:10E9D00094F85C103F208840B06000206065012002
:10E9E00084F83500002094E73F8010F02DE9F047CF
:10E9F00004460D4616461F464FF00008D4F85890BE
:10EA000000BF94F83400012802D10220BDE8F0874D
:10EA1000012084F8340000BF94F83500012825D186
:10EA2000022084F83500002060653B4632462946C6
:10EA30002046FFF7EEF994F85C103F208840C9F8B3
:10EA400008002068006840F0160021680860206C0B
:10EA500028B12068006840F008002168086020683C
:10EA6000006840F001002168086006E000BF002057
:10EA700084F8340000BF4FF002084046C6E70000AB
:10EA800070B5044600F0F8FE06462546681C10B135
:10EA900004480078054400BF00F0EEFE801BA84249
:10EAA000FAD370BD7000002070B504460D461646BE
:10EAB000002200BF94F84500012801D1022070BD5A
:10EAC000012084F8450000BF022084F84400A562BC
:10EAD00000221FE005EB42114FF00040086044F2B5
:10EAE000F4504860C2EBC21000EB400006EB80001F
:10EAF0008860A069012803D1486820F00040486080
:10EB0000581E904204D905EB42102030C86000E046
:10EB1000CD60521C9A42DDD3206800F58050C5605C
:10EB2000012084F8440000BF002084F8450000BFA5
:10EB300000BFC4E770B504460D461646002200BF6C
:10EB400094F84500012801D1022070BD012084F80D
:10EB5000450000BF022084F84400E56200221BE06B
:10EB600005EB42114FF480100860C2EBC21000EBBD
:10EB7000400006EB80008860E06918B9086840F43E
:10EB800040000860581E904204D905EB4210203026
:10EB9000C86000E0CD60521C9A42E1D3206800F5C5
:10EBA00080500561012084F8440000BF002084F8F3
:10EBB000450000BF00BFC8E70146002200BF91F832
:10EBC0004500012801D102207047012081F845004D
:10EBD00000BF022081F84400886A006800F000400D
:10EBE000002838D1886A006800F48070F0B1886B22
:10EBF000401C8863886B012801D1886A08638B6A8E
:10EC00004B63886A0068C0F30D40021FCA63086B3B
:10EC100083680B64886AC0688862012081F84400B8
:10EC200000BF002081F8450000BFCDE7886A00687A
:10EC300000F4007048B1886A086300234B63012325
:10EC40008B63886AC068886205E0886B401C8863B3
:10EC5000886AC0688862012081F8440000BF0020F3
:10EC600081F8450000BF0120AEE700002DE9FC411E
:10EC700004460025002001909D4E0027804614B9CF
:10EC80000120BDE8FC8194F8440028B9002084F8F4
:10EC90004500204600F03AF900BF0020009095485A
:10ECA000006840F48040934908600846006800F41A
:10ECB0008040009000BF00BF8F48006820F4000033
:10ECC0008D49086008460068216A08438A4908603F
:10ECD000206800F58050006840F00101206800F5D0
:10ECE0008050016000F0C8FD07460FE000F0C4FD51
:10ECF000C01BB0F5FA7F09D9032084F8440000BF97
:10ED0000002084F8450000BF0320BAE7206800F522
:10ED10008050006800F001000028E7D120680569F4
:10ED200025F01C0501F038F806467448864205D3E4
:10ED30007348864202D245F008051AE070488642C0
:10ED400005D36B48864202D245F00C0511E06848B5
:10ED5000864203D36B48864200D20AE06948864265
:10ED600005D36948864202D245F0040501E045F02A
:10ED70001005206805614FF400420021204600F094
:10ED80004DFB48B14FF0010841462046FFF7E6F839
:10ED9000012084F8440074E7FF20FFF771FE6068EB
:10EDA000002871D000F068FD074600BF01AA0121CC
:10EDB000204600F0F9F900F05FFDC01B41F28831F8
:10EDC00088420FD94FF0010841462046FFF7C6F8A8
:10EDD000012084F8440000BF002084F8450000BFF3
:10EDE00003204EE7019800F004000428DED18202DF
:10EDF0000021204600F012FB48B14FF001084146C7
:10EE00002046FFF7ABF8012084F8440039E700F012
:10EE100033FD074600BF01AA0121204600F0C4F9D6
:10EE200000F02AFDC01B41F2883188420FD94FF013
:10EE3000010841462046FFF791F8012084F844007C
:10EE400000BF002084F8450000BF032019E70198A7
:10EE500000F020002028DED101AA1121204600F078
:10EE6000A3F948B14FF0010841462046FFF776F874
:10EE7000012084F8440004E7019800F4005020B118
:10EE80004FF40061E16002E00EE00021E16044F235
:10EE9000100101980840884202D10021A1601EE0C3
:10EEA0004FF48041A1601AE0E068C0F3CF00A16890
:10EEB000C1F34F0140EA01020021204600F0AEFA02
:10EEC00048B14FF0010841462046FFF747F80120BE
:10EED00084F84400D5E640F6FF70FFF7D1FD4146C7
:10EEE0002046FFF73BF8012084F844000020C8E6E4
:10EEF000008793034438024004380140002D31015B
:10EF0000C00E160200E1F50580D1F00810B586B0FC
:10EF1000044600BF00BF002000909E48006840F0FB
:10EF200001009C4908600846006800F0010000905C
:10EF300000BF00BF00BF00BF00BF00200090084618
:10EF4000006840F0010008600846006800F0010019
:10EF5000009000BF00BF00BF00BF00BF00200090B6
:10EF60000846006840F0010008600846006800F0AC
:10EF70000100009000BF00BF00BF00BF00BF002025
:10EF800000900846006840F00400086008460068E9
:10EF900000F00400009000BF00BF00BF00BF00BF32
:10EFA000002000900846006840F004000860084611
:10EFB000006800F00400009000BF00BF00BF00BF69
:10EFC00000BF002000900846006840F00400086080
:10EFD0000846006800F00400009000BF00BF00BFBA
:10EFE00000BF00BF002000900846006840F04000CD
:10EFF00008600846006800F04000009000BF00BFB5
:10F0000000BF00BF00BF002000900846006840F02D
:10F01000400008600846006800F04000009000BF13
:10F0200000BF00BF00BF00BF00200090084600687E
:10F0300040F0400008600846006800F04000009082
:10F0400000BF00BF00BF00BF00BF00200090084607
:10F05000006840F0080008600846006800F00800FA
:10F06000009000BF00BF00BF00BF00BF00200090A5
:10F070000846006840F0007008600846006800F02C
:10F080000070009000BF00BF00BF00200090084645
:10F09000006840F0806008600846006800F080600A
:10F0A000009000BF00BF00BF00200090084600682D
:10F0B00040F0006008600846006800F000600090C2
:10F0C00000BF00BF00BF022001900290002003900B
:10F0D000032004900B20059001A92F4800F0ACFA02
:10F0E0000420019001A92C4800F0A6FA802001908C
:10F0F00001A9294800F0A0FA0220019001A927489F
:10F1000000F09AFA1020019001A9244800F094FA26
:10F110002020019001A9214800F08EFA4FF40060F0
:10F12000019001A91E4800F087FA4FF400500190A9
:10F1300001A91B4800F080FA4FF48040019001A91A
:10F14000174800F079FA0820019001200290002071
:10F1500003900320049001A9124800F06DFA00BF4B
:10F16000002208210F4800F07BFB00BF322003F093
:10F170002BFC00BF012208210A4800F071FB00BFF0
:10F18000002206213D2000F014FC3D2000F001FC8F
:10F1900006B010BD303802400000024000080240B6
:10F1A00000180240000C02402DE9F04104460E46D2
:10F1B00017460025A84694F84400822802D1022070
:10F1C000BDE8F081822084F844002068056905F0DC
:10F1D0001C05208A4FF4784101EAC02005434811FC
:10F1E00000EA8610054325F0020545F00105206878
:10F1F000056100F041FB804612E000F03DFBA0EB12
:10F200000800B0F5803F09D3012084F8440000BF16
:10F21000002084F8450000BF0320D1E7206805697D
:10F2200005F001000028E8D12068406980B238600C
:10F23000012084F844000020C2E710B5044600BF56
:10F2400094F84500012801D1022010BD012084F866
:10F25000450000BF022084F844002046FEF7DCFF92
:10F260002046FEF7B1FF2046FEF72AFE2046FEF7B5
:10F2700008FE2046FEF7EFFD012084F8440000BFA1
:10F28000002084F8450000BF00BFDEE710B504464B
:10F2900000BF94F84500012801D1022010BD0120D3
:10F2A00084F8450000BF022084F844002046FEF7A1
:10F2B000DDFD2046FEF7C4FD2046FEF771FF204627
:10F2C000FEF7FEFD2046FEF793FF012084F8440080
:10F2D00000BF002084F8450000BF00BFDEE770B526
:10F2E000024600230025002400BF92F845000128B3
:10F2F00001D1022070BD012082F8450000BF02202C
:10F3000082F8440049B9012082F8440000BF00207F
:10F3100082F8450000BF0120ECE7D06A006800F0E9
:10F32000004048B1122082F8440000BF002082F85B
:10F33000450000BF0120DDE740F2F450814208D9CA
:10F34000B1FBF0F3B1FBF0F600FB161010B15B1C43
:10F3500000E00123012B13D1D06A006840F0405037
:10F36000D66A3060C1F30C00D66A7060D06A00685B
:10F3700040F00040D66A3060D06AC068D06232E0A7
:10F3800000242EE0D06A006820F04050D66A306039
:10F390002CB9D06A006840F08050D66A306040F2E4
:10F3A000F450D66A7060581EA04210D1D06A00682E
:10F3B00040F00050D66A3060581EC0EBC01000EB21
:10F3C0004000A1EB8005C5F30C00D66A7060D06ADE
:10F3D000006840F00040D66A3060D06AC068D062F1
:10F3E000641C9C42CED3106800F58050406900F048
:10F3F000040048B10426106800F5805046610026DC
:10F40000106800F580504660012082F8440000BF7B
:10F41000002082F8450000BF00BF6BE72DE9F041F6
:10F4200004460E4617460025A84694F84400422894
:10F4300002D10220BDE8F081422084F84400206817
:10F44000056905F01C05208A4FF4784101EAC020C7
:10F450000543481100EA8610054345F0020545F0D2
:10F460000105B8B2216848612068056100F004FA1E
:10F47000804612E000F000FAA0EB0800B0F5803FF3
:10F4800009D3012084F8440000BF002084F845001F
:10F4900000BF0320CEE72068056905F001000028C1
:10F4A000E8D1012084F844000020C3E72DE9F041B1
:10F4B00004460E460127002500BF2548007E01288E
:10F4C00002D10220BDE8F08101202149087600BF69
:10F4D0004CF25030FEF7E4FF0746002F31D1401EBA
:10F4E0003060206801280FD1207C6168FEF71CFF86
:10F4F0004CF25030FEF7D4FF07461648006820F063
:10F500000400144908601AE0A56812E0217C28462E
:10F51000FEF7A0FE4CF25030FEF7C2FF07460D4842
:10F52000006820F0FA000B4908600FB1356005E073
:10F530006D1CD4E902100844A842E7D800BFFEF7CA
:10F54000B7FE00BF00200249087600BF3846B9E781
:10F55000C0140020103C02400348006840F0004006
:10F560000149086000207047103C02402DE9F0413D
:10F5700006460F4614461D464FF0010800BF1F48BF
:10F58000007E012802D10220BDE8F08101201B4944
:10F59000087600BF4CF25030FEF782FF8046B8F18B
:10F5A000000F23D126B9E1B23846FEF7D5FE12E0AE
:10F5B000012E04D1A1B23846FEF7FEFE0BE0022E6A
:10F5C00004D121463846FEF70BFF04E022462B46C5
:10F5D0003846FEF7D3FE4CF25030FEF761FF80460E
:10F5E0000748006820F001000549086000BF0020BE
:10F5F0000249087600BF4046C6E70000C01400205C
:10F60000103C024000200949096801F0004159B14D
:10F610000749064A0C3A1160064911600349096816
:10F6200001F0004101B1012070470000103C024090
:10F6300023016745AB89EFCDF8B502460B4600259F
:10F64000002400200021DEE0012606FA01F51E68F4
:10F6500006EA0504AC4275D11E7906F00306012EB8
:10F6600004D01E7906F00306022E13D190684F00D5
:10F670000326BE40B0434F00DE68BE40304390607A
:10F68000506801268E40B0431E79C6F300168E40A6
:10F69000304350601E7906F00306032E09D0D0686F
:10F6A0004F000326BE40B0434F009E68BE4030432B
:10F6B000D0601E7906F00306022E13D1CF0802F1A6
:10F6C000200656F827004E07F70E0F26BE40B0431F
:10F6D0004F07FF0E1E69BE403043CF0802F12006DF
:10F6E00046F8270010684F000326BE40B0431E793D
:10F6F00006F003064F00BE40304310605E6806F01F
:10F700008056B6F1805F7DD100BF00260096404E46
:10F71000366846F480463E4F3E603E46366806F404
:10F720008046009600BF00BF3A4E8F0856F827006B
:10F730008E07370F0F26BE40B043374EB24202D17C
:10F74000002624E05EE0354EB24201D101261EE0E3
:10F75000334EB24201D1022619E0324EB24201D1FB
:10F76000032614E0304EB24201D104260FE02F4EA2
:10F77000B24201D105260AE02D4EB24201D1062641
:10F7800005E02C4EB24201D1072600E008268F0783
:10F790003F0FBE4030431F4E8F0846F82700264ECD
:10F7A0003068A0435E6806F48036B6F5803F00D12D
:10F7B0002043214E3060361D3068A0435E6806F459
:10F7C0000036B6F5003F00D120431B4E361D306099
:10F7D000361D3068A0435E6806F48016B6F5801FBB
:10F7E00000D12043144E08363060361D3068A043E7
:10F7F0005E6806F40016B6F5001F00D120430E4ED9
:10F800000C363060491C1029FFF41EAFF8BD000013
:10F810004438024008380140000002400004024021
:10F8200000080240000C0240001002400014024098
:10F8300000180240001C0240003C014002461369CF
:10F840000B400BB1012000E00020704710B5426969
:10F8500021EA020302EA010443EA0443836110BD82
:10F860000AB1816101E00B048361704701480068BF
:10F87000000C7047002004E0014800687047000059
:10F880006800002070B504460CB9012070BD4CF62C
:10F89000CC402168086045F2555021680860D4E9E1
:10F8A000001048602168A0688860FFF7E5FF054602
:10F8B0000BE0FFF7E1FF401B302806D92068C06845
:10F8C00000F0030008B10320E0E72068C06800F002
:10F8D00003000028EDD14AF6AA2021680860002024
:10F8E000D4E701464AF6AA200A6810600020704753
:10F8F00003480068034909780844014908607047D3
:10F90000680000207000002010B50D48006840F429
:10F9100000700B4908600846006840F48060086089
:10F920000846006840F480700860032000F080F80A
:10F930000F2000F007F800F02BF8002010BD0000A9
:10F94000003C024070B504460E4800784FF47A71CE
:10F95000B1FBF0F00C490968B1FBF0F5284601F065
:10F9600007F808B1012070BD102C07D200222146F3
:10F97000501E00F01EF80548046001E00120F2E787
:10F980000020F0E770000020000000206C00002044
:10F99000704701460846002809DB00F01F030122DA
:10F9A0009A4043099B0003F1E023C3F8002100BF04
:10F9B00070472DE9F05F80460D461646002702F09D
:10F9C00097FE074639462A46334601F00700C0F144
:10F9D000070ABAF1040F02D94FF0040A01E0C0F19E
:10F9E000070AD14600F1040ABAF1070F02D24FF01C
:10F9F000000A01E0A0F1030AD4464FF0010A0AFA16
:10FA000009FAAAF1010A0AEA020A0AFA0CFA4FF004
:10FA1000010B0BFA0CFBABF1010B0BEA030B4AEAEF
:10FA20000B042146404602F06BFEBDE8F09F00004B
:10FA300000BF00F00702064B19684FF6FF0319409C
:10FA4000044B0B4343EA0221014B196000BF70478E
:10FA50000CED00E00000FA0508B50120034908623A
:10FA600003480068009000BF08BD000000000E427F
:10FA700000700040F8B5044600250026207800F00C
:10FA8000010020B9207800F0040004282FD10020C4
:10FA90005B498866FFF7F0FE054606E0FFF7ECFEDF
:10FAA000401B022801D90320F8BD56480068C0F366
:10FAB000C0600028F2D160688101207A41EA0070BC
:10FAC00050498431086001204D498866FFF7D4FE13
:10FAD000054606E0FFF7D0FE401B022801D90320AF
:10FAE000E2E748480068C0F3C0600028F2D0207800
:10FAF00000F0020002287DD100BF002000904148A4
:10FB00004030006840F080503E494031086008466F
:10FB1000006800F08050009000BF00BF3A480068C5
:10FB200040F4807038490860FFF7A6FE054606E0FD
:10FB3000FFF7A2FE401B022801D90320B4E7324898
:10FB4000006800F480700028F2D02E487030006801
:10FB500000F440764EB3A08900F44070B04224D047
:10FB600028487030006820F440760120274908605A
:10FB700000200860234870300660006800F0010033
:10FB800098B1FFF779FE054608E0FFF775FE401BC8
:10FB900041F28831884201D9032085E71948703045
:10FBA0000068C0F340000028EFD000BFA08900F437
:10FBB0004070B0F5407F0CD112480830006820F446
:10FBC000F810134AE168114008430E4908310860F3
:10FBD00007E00C480830006820F4F81009490831A3
:10FBE0000860084870300068A189C1F30B01084320
:10FBF000044900E002E07031086000BF002053E7D4
:10FC0000000047420038024000700040400E47426A
:10FC1000FFFCFF0F70B504460D460CB9012070BD06
:10FC20005848006800F00700A84209D255490D70F5
:10FC30000846006800F00700A84201D00120EEE766
:10FC4000207800F0020002281DD1207800F0040086
:10FC5000042805D14C48006840F4E0504A49086047
:10FC6000207800F00800082805D14748006840F4D3
:10FC70006040454908604448006820F0F000A168F1
:10FC8000084341490860207800F00100A8B360688B
:10FC9000012807D13C4808380068C0F34040B8B993
:10FCA0000120BCE76068022802D06068032807D101
:10FCB000354808380068C0F3406048B90120AEE715
:10FCC000314808380068C0F3400008B90120A6E7B1
:10FCD0002D48006820F00300616808432A49086045
:10FCE000FFF7CAFD064609E0FFF7C6FD801B41F29B
:10FCF0008831884202D9032091E707E02248006852
:10FD000000F00C006168B0EB810FEDD11D48006878
:10FD100000F00700A84209D91A490D70084600688A
:10FD200000F00700A84201D0012078E7207800F019
:10FD30000400042807D11448006820F4E050E1686A
:10FD4000084311490860207800F00800082808D10D
:10FD50000D48006820F46040216940EAC1000A496A
:10FD6000086000F03FF808490968C1F30311074A29
:10FD7000515CC8400649086006480068FFF7E2FD8C
:10FD800000204CE7003C02400838024084A30208EF
:10FD9000000000206C00002001480068704700004F
:10FDA0000000002000B5FFF7F7FF04490968C1F320
:10FDB0008221034A515CC84000BD0000083802405F
:10FDC00094A3020800B5FFF7E7FF04490968C1F3EF
:10FDD0004231034A515CC84000BD0000083802406F
:10FDE00094A302082DE9F047002400250026A1462F
:10FDF0002548006800F00C0020B1042805D0082830
:10FE00003AD105E0DFF8849039E0DFF8849036E0FD
:10FE10001D48001F006800F03F041B48001F0068D9
:10FE200000F4800078B11A481749091F0968C1F326
:10FE30008811A0FB01700146224600233846FCF7DA
:10FE400006FB05460EE011480F49091F0968C1F37A
:10FE50008811A0FB01700146224600233846FCF7BA
:10FE6000F6FA05460848001F0068C0F30140401C30
:10FE70004600B5FBF6F902E0DFF8109000BF00BFC6
:10FE80004846BDE8F0870000083802400024F4002E
:10FE900000127A00F8B504460CB90120F8BD2078AC
:10FEA00000F00100002874D0F948006800F00C0050
:10FEB00004280DD0F648006800F00C00082813D183
:10FEC000F348001F006800F48000B0F5800F0BD1EC
:10FED000EF4808380068C0F34040002859D06068F7
:10FEE000002856D10120D9E700BF6068B0F5803FF7
:10FEF00008D1E7480838006840F48030E449083900
:10FF000008601EE06068B0F5A02F0DD1E048083809
:10FF1000006840F48020DE4908390860084600681F
:10FF200040F4803008600CE0D9480838006820F4BC
:10FF30008030D749083908600846006820F48020DE
:10FF4000086000BF606890B1FFF796FC054606E0C8
:10FF5000FFF792FC401B642801D903209EE7CC48A0
:10FF600008380068C0F340400028F1D011E0FFF7E6
:10FF700083FC054606E0FFF77FFC401B642801D99F
:10FF800003208BE7C24808380068C0F340400028CF
:10FF9000F1D1207800F0020002285FD1BC4800684F
:10FFA00000F00C0058B1BA48006800F00C000828B6
:10FFB0001CD1B748001F006800F48000B0B9B448F5
:10FFC00008380068C0F3400020B1E068012801D083
:10FFD000012063E7AE480838006820F0F800216986
:10FFE00040EAC100AA490839086037E0E06800B378
:10FFF0000120A8490860FFF73FFC054606E0FFF72F
:020000040801F1
:100000003BFC401B022801D9032047E7A0480838E1
:100010000068C0F340000028F1D09D48083800680F
:1000200020F0F800216940EAC100994908390860C8
:1000300014E0002097490860FFF71EFC054606E023
:10004000FFF71AFC401B022801D9032026E790483D
:1000500008380068C0F340000028F1D1207800F093
:10006000080008282CD16069A8B101208A490860DD
:10007000FFF702FC054606E0FFF7FEFB401B0228E7
:1000800001D903200AE782486C300068C0F34000C1
:100090000028F1D014E000207F490860FFF7ECFB56
:1000A000054606E0FFF7E8FB401B022801D90320C4
:1000B000F4E677486C300068C0F340000028F1D1C6
:1000C000207800F00400042870D1002770483830F0
:1000D000006800F0805090B900BF002000906C488C
:1000E0003830006840F0805069493831086008466F
:1000F000006800F08050009000BF00BF01276748F3
:10010000006800F48070B0B96448006840F4807002
:1001100062490860FFF7B0FB054606E0FFF7ACFB5D
:10012000401B022801D90320B8E65C48006800F4AF
:1001300080700028F2D000BFA068012808D1544880
:100140006830006840F001005149683108601DE0E6
:10015000A06805280DD14E486830006840F00400C2
:100160004B49683108600846006840F001000860AB
:100170000CE047486830006820F0010044496831CD
:1001800008600846006820F00400086000BFA0680E
:10019000A8B1FFF771FB054609E0FFF76DFB401BB7
:1001A00041F28831884202D9032077E626E03848B8
:1001B00068300068C0F340000028EED013E0FFF77D
:1001C0005BFB054608E0FFF757FB401B41F2883117
:1001D000884201D9032061E62D4868300068C0F3E9
:1001E00040000028EFD1012F07D12948383000689E
:1001F00020F0805026493831086000BFA0690028EF
:1002000045D02348006800F00C0008285DD0A069A4
:10021000022845D100201F490866FFF72DFB05463F
:1002200006E0FFF729FB401B022801D9032035E631
:10023000174808380068C0F340600028F1D1D4E9BD
:1002400007010843616A40EA81110122A06AC2EBFA
:10025000500041EA00412C20005D41EA00600C4959
:10026000091F086001200B490866FFF705FB0546DA
:1002700006E0FFF701FB401B022801D903200DE631
:10028000034808380068C0F340600028F1D049E016
:100290000838024000004742800E4742007000408C
:1002A000002021490866FFF7E7FA054606E0FFF758
:1002B000E3FA401B022801D90320EFE51B48006840
:1002C000C0F340600028F2D12CE0A069012800D1E1
:1002D000E4E51648001D0668A069012820D006F450
:1002E0008001E06981421BD106F03F01206A814212
:1002F00016D147F6C0703040616AB0EB811F0FD154
:1003000006F440310122A06AC2EB5000B1EB004F6D
:1003100006D106F070612C20005DB1EB006F01D0BA
:100320000120BBE50020B9E500004742003802404B
:10033000704702460023106800F1500303EB81036D
:100340001868704710B50023046804F1500303EBEC
:1003500081031A6010BD704710B504462068C0685C
:10036000C0F3802050B12046FFF7F5FF2068C06839
:1003700000F0800060F490602168C8604FF4800055
:10038000024908600120607710BD0000143C014064
:100390007047000010B5044620688068C0F3003044
:1003A00078B12068C068C0F3002050B12046FFF744
:1003B000EFFF2068C06800F0800060F4C070216822
:1003C000C86020688068C0F3403078B12068C06899
:1003D000C0F3402050B12046FFF7AAFF2068C06854
:1003E00000F0800060F420702168C8604FF4003095
:1003F000024908600120607710BD0000143C0140F4
:1004000070B505460B4616460024286840680E491C
:1004100000EA0104200CD870C4F30420587004F0E2
:100420003F009870C4F3423018705EB9D87801F07C
:1004300021FBD870587801F01DFB5870987801F0B6
:1004400019FB9870002070BD3FFFFF0070B5044697
:100450000B46164600252068806A586020680069AF
:10046000C0F30E009860206800680F4900EA01059B
:10047000C5F305401870C5F30620587005F07F00DD
:10048000987005F48000000CD8705EB9187801F0FF
:10049000F1FA1870587801F0EDFA5870987801F078
:1004A000E9FA9870002070BD7F7F7F0010B5044688
:1004B0000CB9012010BD607F20B9002020772046B4
:1004C00000F060F80220607700BFCA20216848620F
:1004D00053202168486200BF204601F0E3FA40B192
:1004E00000BFFF202168486200BF04206077012020
:1004F000E0E7206880682249084021688860216917
:100500006068084361690843216889680843216875
:1005100088602168E068086120680169208941EAF3
:100520000040216808612068C06820F080002168D0
:10053000C8602068806800F0200060B9204600F0A4
:1005400067F940B100BFFF202168486200BF042066
:1005500060770120AEE72068006C20F480202168DD
:1005600008642068006CA16908432168086400BF22
:10057000FF202168486200BF01206077002099E7D2
:10058000BFFF8FFF10B592B0044600BF002001905E
:100590001148006840F080500F4908600846006824
:1005A00000F08050019000BF00BFFFF755FA042013
:1005B000069000200C900120089006A8FFF76AFC26
:1005C00002200290C001059002A8FFF753FA012013
:1005D0000249086012B010BD403802403C0E47424C
:1005E0002DE9F04104460D461646002700BF207F46
:1005F000012802D10220BDE8F0810120207700BF50
:10060000022060774EB9687800F01000102804D1FD
:10061000687800F0EF000A30687086B9E87801F079
:1006200034FA0304687801F030FA43EA0023A8782A
:1006300001F02BFA0343287843EA403709E0E878D1
:100640000004697840EA0120A9780843297840EA43
:10065000413700BFCA2021684862532021684862A0
:1006600000BF204601F01EFA60B100BFFF202168E4
:10067000486200BF0420607700BF0020207700BFE1
:100680000120B8E716483840216848602068C068F3
:1006900020F080002168C8602068806800F0200099
:1006A00080B9204600F0B4F860B100BFFF20216897
:1006B000486200BF0420607700BF0020207700BFA1
:1006C000012098E700BFFF202168486200BF012099
:1006D000607700BF0020207700BF00BF8BE70000DD
:1006E0003FFFFF002DE9F04104460D461646002766
:1006F00000BF207F012802D10220BDE8F081012047
:10070000207700BF02206077CEB92068806800F0B3
:10071000400000B102E00020E87000BF287801F03E
:10072000B4F90304687801F0B0F943EA0023A8782B
:1007300001F0ABF90343E87843EA004712E0206890
:10074000806800F0400000B102E00020E87000BFC7
:1007500028780004697840EA0120A9780843E978FC
:1007600040EA014700BFCA2021684862532021683F
:10077000486200BF204601F095F960B100BFFF203C
:100780002168486200BF0420607700BF0020207706
:1007900000BF0120B1E71D4838402168086020688B
:1007A000806820F4802021688860D5E9030108432F
:1007B000216889680843216888602068C06820F043
:1007C00080002168C8602068806800F0200080B93F
:1007D000204600F01DF860B100BFFF20216848628C
:1007E00000BF0420607700BF0020207700BF0120F9
:1007F00083E700BFFF202168486200BF01206077C7
:1008000000BF0020207700BF00BF76E77F7F7F001A
:1008100070B5044600252068C06820F0A00021685B
:10082000C860FFF729F8054607E0FFF725F8401BE9
:10083000B0F57A7F01D9032070BD2068C06800F050
:1008400020000028F1D00020F6E770B504460E46DF
:1008500015460CB9012070BD94F8490028B9002054
:1008600084F84800204600F01DF804F108012068D3
:10087000FDF76CFE3146A2682068FDF795FE29461B
:10088000236BD4E90102FDF73DFEA168206850F812
:10089000210040F00100A268216841F822000020F8
:1008A000D9E7000010B586B0044600BF00200090D4
:1008B0002248006840F001002049086008460068AE
:1008C00000F00100009000BF00BF00BF00200090BA
:1008D0001A480838006840F00800184908390860CC
:1008E0000846006800F00800009000BF00BF00BF8D
:1008F000002000900846006840F01000086008469C
:10090000006800F01000009000BF00BF4CF20370C0
:1009100001900220029001200390022004900C20FC
:10092000059001A90648FEF787FE4FF680700190FA
:1009300001A90448FEF780FE06B010BD3838024019
:10094000000C024000100240042808D14FF0E021C2
:10095000096941F004014FF0E022116107E04FF016
:10096000E021096921F004014FF0E0221161704794
:1009700070B504462546681EB0F1807F01D3012082
:100980000FE0681E4FF0E02148610F214FF0FF306B
:1009900001F0B6FE00204FF0E021886107200861D9
:1009A000002070BD10B504460CB9012010BD94F8AC
:1009B0003D0028B9002084F83C00204600F025F8CE
:1009C000022084F83D00211D206801F083F90120F8
:1009D00084F8460000BF84F83E0001213F20015505
:1009E000402001554120015500BF00BF012084F87F
:1009F000420043200155442001554520015500BFC8
:100A0000012084F83D000020D0E77047014691F8AE
:100A10003D00012801D001207047022081F83D00EF
:100A20000868C06840F001000B68D8601A4B08687D
:100A300098421BD00868B0F1804F17D0174B086858
:100A4000984213D0164B086898420FD0154B08688F
:100A500098420BD0144B0868984207D0134B086893
:100A6000984203D0124B086898420CD108688068FD
:100A700000F00702062A0CD00868006840F0010068
:100A80000B68186005E00868006840F001000B681A
:100A900018600020C0E70000000001400004004092
:100AA00000080040000C00400004014000400140EC
:100AB00000180040704770B5044600252068406962
:100AC000C0F3C01594F83D0021280ED16DB1206807
:100AD000406920F0800021684861606B10B1606B54
:100AE000FDF784FD204601F024FA20684069C0F338
:100AF000801594F83E0022280ED16DB1206840691F
:100B000020F0400021684861A06B10B1A06BFDF798
:100B10006DFD204601F0E2F9002070BD7047000035
:100B20002DE9F84F0446206805682068C6682068EB
:100B300047694FF00009CA4605F00F09B9F1000FE7
:100B40000AD105F0200038B106F0200020B120467F
:100B500001F0F9F9BDE8F88FB9F1000F72D007F094
:100B6000010018B906F4907000286BD005F0010060
:100B700030B106F4807018B1206C40F001002064A0
:100B800005F0040030B107F0010018B1206C40F00E
:100B90000200206405F0020030B107F0010018B136
:100BA000206C40F00400206405F0080048B106F015
:100BB000200010B907F0010018B1206C40F00800C7
:100BC0002064206C70B305F0200028B106F02000EE
:100BD00010B1204601F0B7F920684069C0F3801ACF
:100BE000206C00F0080010B9BAF1000F23D02046A5
:100BF00001F074F92068406900F04000402816D1E7
:100C00002068406920F0400021684861A06B50B125
:100C10005648A16B0865A06BFDF73DFD10B1A06BB8
:100C2000016D88470CE02046FFF778FF08E020467A
:100C3000FFF774FF04E02046FFF770FF00202064F8
:100C400088E7FFE7206B012879D105F01000002824
:100C500075D006F01000002871D000BF0020009071
:100C600020680068009020684068009000BF00BFC6
:100C70002068406900F04000402839D1A06B00682E
:100C800040681FFA80F8B8F1000F30D0A08D4045C1
:100C90002DDDA4F82E80A06BC069B0F5807F1FD039
:100CA0002068C06820F480702168C86020684069AE
:100CB00020F00100216848612068406920F0400070
:100CC00021684861202084F83E00002020632068CD
:100CD000C06820F010002168C860A06BFDF786FC9A
:100CE000A08DE28D801A81B22046FFF7E3FE31E746
:100CF000A08DE18D401A1FFA80F8E08DE8B1B8F1BF
:100D0000000F1AD02068C06820F490702168C86075
:100D10002068406920F0010021684861202084F8A3
:100D20003E00002020632068C06820F01000216889
:100D3000C86041462046FFF7BDFE0BE7FFE705F020
:100D4000800030B106F0800018B1204601F0DFFAD3
:100D500000E705F0400030B106F0400018B1204631
:100D600001F0D7F8F6E600BFF4E60000AD1D01087B
:100D700010B504460CB9012010BDA06900B100E017
:100D800000BF94F83D0028B9002084F83C002046BC
:100D900000F028F8242084F83D002068C06820F482
:100DA00000502168C860204601F02CF920680069D5
:100DB00020F49040216808612068406920F02A00F2
:100DC000216848612068C06840F400502168C8600C
:100DD00000202064202084F83D0084F83E0000209C
:100DE000CAE7000010B586B004462E492068884244
:100DF00055D100BF00BF002000902B48006840F094
:100E00001000294908600846006800F010000090B2
:100E100000BF00BF00BF00BF00BF002000902248FD
:100E20001438006840F001001F4914390860084672
:100E3000006800F00100009000BF00BF00BF00BFCD
:100E400000BF002000900846006840F001000860E4
:100E50000846006800F00100009000BF00BF00BF1E
:100E60004815019002200290012003900220049076
:100E70000720059001A90D48FEF7DEFB4FF48060C6
:100E800001900720059001A90848FEF7D5FB252011
:100E9000FEF77FFD032211462520FEF78AFD06B0EE
:100EA00010BD000000100140443802400000024024
:100EB00070B504460D46164694F83E00202816D11B
:100EC00005B10EB9012070BD00BF94F83C000128A7
:100ED00001D10220F7E7012084F83C0000BF002088
:100EE000206332462946204601F0A2F9EBE70220B2
:100EF000E9E770B504460D46164694F83E002028F2
:100F000016D105B10EB9012070BD00BF94F83C00A8
:100F1000012801D10220F7E7012084F83C0000BF3E
:100F20000020206332462946204601F0CDF9EBE748
:100F30000220E9E710B504462049206888423BD1E9
:100F40001F48008800F4004088BB1D48008800F45A
:100F5000804070B11B4800780A2803D0002018494F
:100F6000088024E01648008840F4004014490880B6
:100F70001DE0144800780D2806D11148008840F47F
:100F800080400F49088012E00E4800780C4909881B
:100F9000C1F30D010C4A505409480088401C08490F
:100FA000088008460088C72801DD0020088001224B
:100FB00004490648FFF79DFF10BD000000100140E6
:100FC0006400002066000020B41300207C14002080
:100FD00070470000F7B50446154694F83D002028F8
:100FE0003DD1019800B10DB90120FEBD00BF94F8BC
:100FF0003C00012801D10220F7E7012084F83C00E1
:1010000000BF01982062A584E5840020206421208F
:1010100084F83D001348616BC8631348616B086432
:101020001248616BC8640020616B086501AE2368DB
:101030001A1D31682B46606BFDF7D8FC6FF040003D
:101040002168086000BF002084F83C0000BF2068D1
:10105000406940F08000216848610020C5E7022017
:10106000C3E70000991E0108CF1E0108C11D010839
:101070007047704700BFFEE710B500200F490860B9
:101080000F48006820F440200D49086008460068B9
:1010900040F48020086000200A49C1F8A402022020
:1010A00001F09EFC012005490860022001F098FC37
:1010B00000200449C1F8A00210BD0000A0824042F7
:1010C000000402400080404200B587B000BF00200D
:1010D00001901048006840F002000E490860084680
:1010E000006800F00200019000BF00BF4FF44070A4
:1010F00002900120039004900220059002A9064866
:10110000FEF79AFA0120054908600549C1F8A002D6
:1011100007B000BD3038024000040240A4824042C3
:101120000080404210B500200F4908600F48006859
:1011300020F440200D4908600846006840F48020F3
:10114000086001200A49C1F8A402022001F048FC0D
:10115000012005490860022001F042FC00200449FA
:10116000C1F8A00210BD0000A0824042000402406D
:101170000080404270B5054600241648006820F4FF
:10118000402014490860084600680860002616E000
:10119000002011490860022001F022FC01200F49C3
:1011A000C1F8A0026006040E0B487C38006808B144
:1011B000601CC4B2012001F013FC701CC6B2082EE2
:1011C000E6DB15B9FFF7AEFF01E0FFF755FF20465C
:1011D00070BD000000040240A082404200804042F6
:1011E00070B504461548006820F440201349086093
:1011F0000846006840F4802008600020104908601C
:10120000002517E0E0090E49091D08606006040E7C
:10121000022001F0E5FB01200A49C1F8A0020220EA
:1012200001F0DEFB002006490860022001F0D8FB37
:10123000681CC5B2082DE5DB70BD0000000402404B
:10124000A08240420080404210B50F48006820F460
:1012500040200D4908600846006840F4802008607E
:1012600001200A4908600A49C1F8A002042001F0DF
:10127000B7FB002005490860042001F0B1FB002005
:101280000349C1F8A00210BD00040240A4824042FC
:101290000080404210B50F48006820F440200D49FE
:1012A00008600846006840F48020086000200A4971
:1012B00008600A49C1F8A402042001F091FB012052
:1012C000054908600549C1F8A402042001F088FB23
:1012D00010BD000000040240A08240420080404255
:1012E00010B500241148006820F440200F49086020
:1012F000084600680860012001F072FB01200C49DB
:10130000086001F06DFB07E0601CC4B2FA2C03DD3D
:10131000FFF7C0FF012010BD05487C380068002899
:10132000F2D10349086000BFF5E700000004024065
:10133000A082404210B50248FEF7D3FA10BD00006B
:101340000818002070B504460D460448044908609A
:10135000084644608560FEF795FA70BD0030004095
:101360000818002008B500BF00200090324800682F
:1013700040F40010304908600846006800F400108E
:10138000009000BF00BF2D482D4908604FF000605D
:10139000486000212A488160C1604FF4806101618A
:1013A000002141618161C1614FF40031016200217E
:1013B0004162FDF7A5FA08B1FCF742FF00BF2048E3
:1013C0002049886308461E49886300BF1B483030A7
:1013D0001D4908604FF00060486040211A48816054
:1013E0000021C1604FF48061016100214161816190
:1013F000C1614FF48031016200214162FDF780FA42
:1014000008B1FCF71DFF00BF0F480E4948630846AE
:101410000D49886300BF002205210C20FEF7C9FAA0
:101420000C20FEF7B6FA002205210E20FEF7C1FAC5
:101430000E20FEF7AEFA08BD3038024028600240A8
:101440001C160020D81500207C16002000B587B09F
:1014500000BF002001901548006840F002001349C9
:1014600008600846006800F00200019000BF00BF5D
:10147000142102A8FBF74AFB4FF48060029002207F
:10148000039000200490032005900720069002A9F5
:101490000748FEF7D1F84FF4006002900120049055
:1014A00002A90348FEF7C8F807B000BD3038024073
:1014B0000004024038B5044600BF002000901848E0
:1014C000006840F48020164908600846006800F46F
:1014D0008020009000BF00BF1248134908600846F2
:1014E000446000218160C16001610C2141610021E3
:1014F0008161C161FFF73CFC08B1FCF7A1FE0A481D
:101500000068C06840F0100007490968C860002200
:1015100006212720FEF74DFA2720FEF73AFA38BDBC
:101520004038024000480040D815002000BFFEE7C8
:10153000704700001CA0FBF701F800F0C5F90A2075
:1015400016F0D4FE01201B498871084600790A284C
:1015500001D10B2000E00A201649487101F0F4F98E
:10156000642016F0C3FE14A0FAF7E8FF00BF00BF26
:1015700000BF00BF00BFBFF34F8F00BF00BF00BF61
:101580001548006800F4E06014490843001D124942
:10159000086000BF00BF00BFBFF34F8F00BF00BF98
:1015A00000BF00BF00BFFDE74F544120454E440D32
:1015B0000A000000A81300205265626F6F74696E04
:1015C0006720746F206E6577206669726D7761722F
:1015D000652E2E2E0D0A00000CED00E00000FA052D
:1015E00010B501F0A7F90F48807910B1022816D183
:1015F0000EE00DA0FAF7A2FF0A4800790A2803D1ED
:1016000010A0FAF79BFF02E015A0FAF797FF06E09B
:101610001AA0FAF793FF01202249087000BF00BF0B
:1016200010BD0000A8130020C6F4B6AFD7B4CCACF0
:10163000CEAA3A424F4F545F4E4F524D414C0D0A85
:1016400000000000B3CCD0F26170705F61D5FDB3D3
:10165000A3D4CBD0D0D6D02E2E2E0D0A0000000061
:10166000B3CCD0F26170705F62D5FDB3A3D4CBD0A0
:10167000D0D6D02E2E2E0D0A00000000C6F4B6AF34
:10168000D7B4CCACCEAA3A424F4F545F54455354D2
:10169000494E472C20D0E8D2AABDF8D0D0B2E2CA39
:1016A000D40D0A005B0000202DE9F34F83B00F46F4
:1016B000664800683844B0F5805F05D9002063496A
:1016C000086005B0BDE8F08F6149604A126888186B
:1016D0003A460399FBF737F95C48006838445B49A0
:1016E0000860ABE05A480078552803D15848407844
:1016F000AA280DD055480068421E5549491C481E6D
:10170000FBF766F951480068401E5049086095E0B3
:101710004F4890F80280C0784D49097940EA012687
:10172000F01D84B249480068A04200D28BE0A01EA0
:101730004749095C601E464A105C41EA002002905D
:10174000A01E81B21046FCF7C7FA814602984845B0
:101750000FD040A0FAF7F2FE3C480068021B3C485C
:101760000119FBF735F939480068001B3749086053
:1017700064E0374D6D1DB8F1A00F06D0B8F1A10F90
:1017800017D0B8F1A20F46D143E0042E03D035A004
:10179000FAF7D4FE44E02878697840EA0120A97875
:1017A00040EA0140E97840EA016A504600F098F8C2
:1017B00036E0042E03DA30A0FAF7C0FE30E02878D5
:1017C000697840EA0120A97840EA0140E97840EAD6
:1017D000016A281D0190301F1FFA80FB5A465146AE
:1017E0002AA0FAF7ABFE5A465046019900F016FFC0
:1017F000002001238022014600902B48006817F04A
:10180000C7FE2A48006858442849086000F05CF880
:1018100006E0FFF78FFE414625A0FAF78FFE00BFD6
:1018200000BF0A480068021B09480119FBF7D0F8FD
:1018300006480068001B0549086000BF03480068AF
:101840000728BFF44FAF00BF00BF3AE748000020B1
:10185000A80300204F544120435243204552524F89
:10186000520D0A004F5441205354415254204C45CC
:101870004E204552520D0A004F54412044415441DC
:10188000204C454E204552520D0A00004F54412035
:1018900044415441206F66667365743A2564206C38
:1018A000656E3A25640D0A002C00002050000020CF
:1018B0004F544120554E4B4E4F574E20434D4420E0
:1018C000253032580D0A000010B500231A4619467B
:1018D0000248006817F02AFA10BD000044000020FA
:1018E00038B505462BA0FAF729FE01202C490870CF
:1018F0002C48006816F056FF2B48006816F052FF7F
:101900002A48006816F04EFF2948006816F04AFF82
:101910002848006816F046FF274805600020274940
:10192000086027490860294626A0FAF707FE2AA082
:10193000FAF704FE2F4800682F49884208D12FA0EB
:10194000FAF7FCFD04213048FAF726FD044607E0CB
:101950002EA0FAF7F3FD05212748FAF71DFD0446EE
:101960003CB100200E49087021462BA0FAF7E6FD95
:1019700038BD34A0FAF7E2FD0020012380220146A1
:1019800000903748006817F003FEFFF79DFF00BF87
:10199000EEE700004F54412053544152540D0A00C9
:1019A0003F0000200C00002020000020100000203C
:1019B00014000020180000204C00002050000020DF
:1019C000540000204669726D776172652073697AF0
:1019D000653A2025640D0A0045726173696E6720BF
:1019E000666C61736820736563746F72732E2E2E3C
:1019F0000D0A000008ED00E000C00008B2C1B3FD10
:101A0000617070620D0A000000000808B2C1B3FDE9
:101A1000617070610D0A00004F54412053544152CF
:101A200054204552415345204641494C45442C20C1
:101A30004572726F7220436F64653A2025640D0A07
:101A400000000000466C6173682065726173652058
:101A5000636F6D706C657465642E0D0A0000000084
:101A60002C00002010B50248FEF794FC10BD0000C9
:101A7000E8170020014600BF080900EB8000420083
:101A800001F00F001044C0B270470146002203E08D
:101A9000521CA1F10A00C1B20A29F9D2100741EA89
:101AA0001060704770B5044600252068C06800F0DB
:101AB0004000A0B9681E2168C860FDF7DDFE05463C
:101AC00007E0FDF7D9FE401BB0F57A7F01D903206E
