:020000040808EA
:10000000100800208902080819240808532108084C
:1000100015240808ED0908086529080800000000F3
:100020000000000000000000000000001D2408087F
:10003000F1090808000000001B2408081F24080814
:10004000AD020808AD020808AD020808AD020808B4
:10005000AD020808AD020808AD020808AD020808A4
:10006000AD020808AD020808AD020808AD02080894
:10007000AD020808AD020808AD020808AD02080884
:10008000AD020808AD020808AD020808AD02080874
:10009000AD020808AD020808AD020808AD02080864
:1000A000AD020808AD020808AD020808AD02080854
:1000B000AD020808AD0208083D240808AD02080892
:1000C000AD020808AD020808AD020808AD02080834
:1000D000AD02080855290808AD020808AD02080855
:1000E000AD020808AD020808AD020808AD02080814
:1000F000AD020808AD020808AD020808AD02080804
:10010000AD020808AD020808AD020808AD020808F3
:10011000AD020808AD020808AD020808AD020808E3
:10012000AD020808AD020808AD020808AD020808D3
:10013000AD020808AD020808AD020808AD020808C3
:10014000AD020808AD020808AD020808AD020808B3
:10015000AD020808AD020808AD020808AD020808A3
:10016000AD020808AD020808AD020808AD02080893
:10017000AD020808AD020808AD0208080000000042
:10018000AD020808AD02080800F002F800F06DF8B2
:100190000AA090E8000C82448344AAF10107DA45E2
:1001A00001D100F062F8AFF2090EBAE80F0013F0C7
:1001B000010F18BFFB1A43F00103184784B2000077
:1001C000A4B200000A444FF0000C10F8013B13F0F9
:1001D000070408BF10F8014B1D1108BF10F8015BA0
:1001E000641E05D010F8016B641E01F8016BF9D193
:1001F00013F0080F1EBF10F8014BAD1C0C1B09D1EA
:100200006D1E58BF01F801CBFAD505E014F8016B5B
:1002100001F8016B6D1EF9D59142D6D370470000ED
:100220000023002400250026103A28BF78C1FBD8FF
:10023000520728BF30C148BF0B607047642900F0E7
:100240001D81752900F01A81782900F053816329F6
:1002500000F0CE82732900F0D382002070471FB5D2
:1002600007F0CEFE1FBD10B510BD00F0FBFA114621
:10027000FFF7F5FF06F0DCF900F019FB03B4FFF718
:10028000F2FF03BC02F093FB0C48016841F47001DB
:1002900001600B4880470B480047FEE7FEE7FEE79A
:1002A000FEE7FEE7FEE7FEE7FEE7FEE7FEE700000B
:1002B00005480649044A064B7047000088ED00E0F7
:1002C00029240808890108081004002010080020CB
:1002D00010040020704753EA020C00F069802DE9F9
:1002E000F04B4FF00006002B1FBFB3FA83F503FA63
:1002F00005F424FA05F65E4012BF1643B2FA82F501
:1003000002FA05F4C5F120051EBF22FA05FC44EAF5
:100310000C04203556EA044C4FEA144418BF641C00
:100320004FF000084FF00009904271EB030C39D3F5
:10033000002919BFB1FA81F701FA07F6B0FA80F780
:1003400000FA07F6C7F120071EBF20FA07FC46EAAD
:100350000C062037B6FBF4FCA7EB0507103F07F0AF
:100360001F0BCBF120060CFA0BFB2CFA06F644BF50
:10037000B3460026202FA4BF5E464FF0000B5BEA79
:10038000060C08BF4FF0010B19EB0B09ABFB027C0D
:1003900048EB0608C01B06FB02CC0BFB03CC71EB41
:1003A0000C01C1E70B46024641464846BDE8F08BCA
:1003B00013B54FF000004FF00001AFF30080BDE82F
:1003C0001C4070470FB4044910B503AA029800F00E
:1003D0001BFA10BC5DF814FB0800002070B5044641
:1003E00085690068C10601D5302600E02026C007D7
:1003F00007D070BDD4E9012130469047206A401CE7
:1004000020626D1EF6D570BD70B504468569007812
:10041000C00707D170BDD4E9012120209047206A90
:10042000401C20626D1EF6D570BD70B50C460546A9
:10043000012A05D02878800600D5EA69002302E069
:10044000012305E05B1C934202D2E05C0028F9D155
:10045000A869E618C01AA861286A184428622846C4
:10046000FFF7BCFF04E0D5E9012114F8010B904728
:10047000B442F8D32846FFF7C7FF70BD2DE9F0411D
:100480000646002410687529314616A510D0AFF332
:100490000080002802DA404213A507E031688A078D
:1004A00001D512A502E0490704D511A5012401E0F8
:1004B000AFF3008000210A2206F1240709E0B0FB17
:1004C000F2FCB0FBF2F302FB1C003030785418460B
:1004D000491C0028F3D123462A463046BDE8F041A6
:1004E00000F023B9000000002D0000002B000000E8
:1004F0002000000070B504460D4621461068AFF399
:1005000000802188090502D50F4A7A4402E00E4A8C
:100510007A440E32002104F1240305E000F00F06B6
:100520000009965D5E54491C0028F7D1207800230D
:10053000000704D5702D02D009B1022311322046E4
:10054000BDE8704000F0F1B894AA00002DE9F05F1A
:10055000894604464FF0000ADFF874B1FB44C0F846
:1005600020A02046E1688847002874D0252806D0BE
:10057000D4E901219047206A401C2062F1E700265F
:100580005F462046E16888472028054607DB312D75
:1005900005D2781910F8200C08B10643F1E7B0072E
:1005A00001D526F00406C4F81CA00027C4F818A042
:1005B0002A2D09D0284602F0F3F938B304EB870856
:1005C000303DC8F8185019E059F8041B204604EBD8
:1005D00087029161E1688847012F054618D1E069DB
:1005E000002820DA26F020061DE0D8F8180000EBDD
:1005F000800005EB40003038C8F818002046E1685C
:100600008847054602F0CCF90028EED1012F0AD028
:100610002E2D08D12046E16888477F1C0546022F11
:1006200046F02006C4DBA069002803DA404246F009
:100630000106A061F00701D026F010066C2D0BD04A
:10064000682D09D04C2D39D06A2D35D0742D35D078
:100650007A2D33D016E038E0E1682F4620468847EF
:10066000B842054609D16C2F26D04FF48060E1686E
:10067000064320468847054604E06C2F1AD04FF405
:10068000807006430DB3A5F14100192802D820352A
:1006900046F400664A462946204626604E46FFF745
:1006A000CDFD80B101280BD0F61D26F0070000F12A
:1006B000080956E74020E4E78020D8E70020D6E785
:1006C00006F104094DE7284652E7206ABDE8F09F8D
:1006D0006AAA00004FF0000200B513469446964601
:1006E000203922BFA0E80C50A0E80C50B1F1200145
:1006F000BFF4F7AF090728BFA0E80C5048BF0CC0F3
:100700005DF804EB890028BF40F8042B08BF704750
:1007100048BF20F8022B11F0804F18BF00F8012BC2
:10072000704770477047704770472DE9F0470D4696
:1007300099469246044600F124080168880604D5CB
:10074000E06921F01001216000E00120A84201DDF4
:10075000471B00E00027A1697A1902EB0900081A7B
:10076000A0612078C00602D42046FFF737FE00269D
:1007700008E0D4E901211AF806009047206A401CDD
:10078000761C20624E45F4DB2078C0060AD5204650
:10079000FFF724FE06E0D4E9012130209047206ACB
:1007A000401C2062381EA7F10107F4DC07E0D4E901
:1007B000012118F805009047206A401C2062281E7D
:1007C000A5F10105F3DC2046FFF71EFE20780006A8
:1007D00002D50220BDE8F0870120FBE710B5436990
:1007E00013B1AFF3008001E0FFF71FFE012010BD41
:1007F000127800F124010A7000224A700122EDE70C
:1008000011684FF0FF32E9E7074B70B50D467B44A6
:1008100000F011F80446284600F020F810B14FF01F
:10082000FF3070BD204670BD3322000001694A1CB4
:1008300002610878704700B58FB0CDE90131002121
:10084000059105497944CDE9031011466846FFF743
:100850007DFE0FB000BD0000E5FFFFFF007B00F054
:1008600080007047754600F02BF8AE4605006946DB
:10087000534620F00700854618B020B5FFF718FD55
:10088000BDE820404FF000064FF000074FF0000891
:100890004FF0000B21F00701AC46ACE8C009ACE812
:1008A000C009ACE8C009ACE8C0098D46704710B576
:1008B0000446AFF300802046BDE81040FFF7DEBCE1
:1008C00000487047B003002010B5FF2000F028F862
:1008D0000446552C01D1002010BD5521FF2000F009
:1008E0005DF8FF2000F01CF80446552C01D10020D3
:1008F000F2E70120F0E710B501F056FC10BD70B52D
:1009000006460C46154608E03046721C96B200F0CA
:1009100007F804F8010B681E85B2002DF4D170BDF4
:1009200070B50446002601F0FFFC2546E11704EBF4
:1009300011610912A02202EB4101C8B201F0C0FC12
:1009400001F03EFDE11704EB11610912A4EB012156
:10095000C8B201F0B5FC01F033FD01F0E5FCA120C7
:1009600001F0AEFC01F02CFD002001F073FC064606
:1009700001F000FD304670BD70B505460C461646C8
:1009800006E02178284600F009F8681C85B2641C4E
:10099000301EA6F101018EB2F3D170BD70B50446D0
:1009A0000E4601F0C1FC2546E11704EB1161091266
:1009B000A02202EB4101C8B201F082FC01F000FD6F
:1009C000E11704EB11610912A4EB0121C8B201F097
:1009D00077FC01F0F5FC304601F072FC01F0F0FC10
:1009E00001F0C8FC0A2001F0FFFF70BD00BFFEE768
:1009F0007047000010B5002201B909E0012901D1BA
:100A00000A0205E0022901D10A0201E04FF4407216
:100A10000E4B1B6823F440730C4C236023461B6869
:100A20001343236023461B6823F0F8032360234607
:100A30001B68022444EAC0042343044C2360234679
:100A40001B6843F48033236010BD0000103C02405B
:100A50001C48006800F40070B0B11A48006820F427
:100A600000701849086000BF0846006840F4006044
:100A700008600846006820F40060086000BF08466F
:100A8000006840F4007008600E48006800F4806060
:100A9000B0B10C48006820F480600A49086000BFCB
:100AA0000846006840F4805008600846006820F45A
:100AB0008050086000BF0846006840F4806008600D
:100AC00070470000003C02400A4A126822F440725B
:100AD000084B1A601A46126842F004021A601A465D
:100AE00012684FF4803343EA00231A43014B1A6023
:100AF00070470000103C0240074A126822F440721E
:100B0000054B1A601A4612681A601A46126842F0BB
:100B100001021A6001707047103C024010B50D4987
:100B2000096821F440710B4C21602146096841F4A9
:100B3000407121602146096841F001012160026095
:100B400000BF00BF00BFBFF36F8F00BF00BF00BF7B
:100B5000436010BD103C0240084A126822F4407203
:100B6000064B1A601A46126842F480721A601A46DE
:100B7000126842F001021A6001807047103C024086
:100B8000084A126822F44072064B1A601A4612682C
:100B900042F400721A601A46126842F001021A60AA
:100BA00001607047103C02402348006800F01000CC
:100BB00040B12248C06940F010002049C8611020AF
:100BC0001D4908601C48006800F0200040B11B4827
:100BD000C06940F008001949C86120201649086022
:100BE0001548006800F0400040B11448C06940F06A
:100BF00004001249C86140200F4908600E4800688F
:100C000000F0800040B10D48C06940F002000B497F
:100C1000C8618020084908600748006800F00200A9
:100C200040B10648C06940F020000449C861022074
:100C300001490860704700000C3C0240E8020020B7
:100C400070B50446002500201449C86100F0E4FA9C
:100C5000054609E0601C38B124B100F0DDFA401B04
:100C6000A04201D9032070BD0D48006800F4803017
:100C70000028EFD10A48006800F0010010B10120FF
:100C8000074908600648006800F0F20018B1FFF755
:100C90008BFF0120E7E70020E5E70000E8020020E5
:100CA0000C3C024070B504461D460023B5F5804F4C
:100CB00013D154F822300C480340D1E9000640EA31
:100CC00006108E6840EA06208E8940EA06408E694A
:100CD0003043034344F8223003E06FF0704044F89F
:100CE0002200002070BD00000000F0CF10B50346C8
:100CF0000022086853F8202012480240D1E901047C
:100D00002043CC6820430C6920434C6920438C6904
:100D10002043CC6920430C6A20434C6A20438C6AF0
:100D20002043CC6A2043CC6B20430C6B204302430E
:100D30008868082801D142F04002086843F8202062
:100D4000002010BD8000F0FF30B503460024501C89
:100D500053F8204004F04044D1E9000540EA051072
:100D60008D6840EA05208D8940EA0545088A401EC5
:100D700045EA0055087D801E45EA00608D692843DC
:100D80000443501C43F82040002030BD70B5044699
:100D9000A56D00F041FA064694F83500022808D007
:100DA0008020606500BF002084F8340000BF01206F
:100DB00070BD2068006820F0160021680860206877
:100DC000406920F0800021684861206C08B9A06C5F
:100DD00028B12068006820F00800216808602068B9
:100DE000006820F00100216808600FE000F014FAAC
:100DF000801B05280AD92020606500BF002084F8E8
:100E0000340000BF032084F83500D1E72068006873
:100E100000F001000028E9D194F85C103F208840E0
:100E2000A86000BF002084F8340000BF012084F8CF
:100E300035000020BCE7014691F83500022803D0B8
:100E40008020486501207047052081F8350008683A
:100E5000006820F001000A6810600020F3E700003D
:100E60002DE9F04104460E460127002500BF254824
:100E7000007E012802D10220BDE8F0810120214935
:100E8000087600BF4CF25030FFF7DAFE0746002F1D
:100E900031D1401E3060206801280FD1207C61686C
:100EA000FFF712FE4CF25030FFF7CAFE0746164815
:100EB000006820F00400144908601AE0A56812E0F8
:100EC000217C2846FFF796FD4CF25030FFF7B8FE24
:100ED00007460D48006820F0FA000B4908600FB182
:100EE000356005E06D1CD4E902100844A842E7D83B
:100EF00000BFFFF7ADFD00BF00200249087600BF2C
:100F00003846B9E7E8020020103C02400348006878
:100F100040F000400149086000207047103C02404A
:100F20002DE9F04106460F4614461D464FF00108D4
:100F300000BF1F48007E012802D10220BDE8F081D9
:100F400001201B49087600BF4CF25030FFF778FEB5
:100F50008046B8F1000F23D126B9E1B23846FFF739
:100F6000CBFD12E0012E04D1A1B23846FFF7F4FD0B
:100F70000BE0022E04D121463846FFF701FE04E0C3
:100F800022462B463846FFF7C9FD4CF25030FFF79A
:100F900057FE80460748006820F0010005490860B8
:100FA00000BF00200249087600BF4046C6E70000A7
:100FB000E8020020103C024000200949096801F0C5
:100FC000004159B10749064A0C3A116006491160BF
:100FD0000349096801F0004101B101207047000098
:100FE000103C024023016745AB89EFCDF8B50246BE
:100FF0000B460025002400200021DEE0012606FA31
:1010000001F51E6806EA0504AC4275D11E7906F0AA
:101010000306012E04D01E7906F00306022E13D11A
:1010200090684F000326BE40B0434F00DE68BE40CC
:1010300030439060506801268E40B0431E79C6F35D
:1010400000168E40304350601E7906F00306032ED2
:1010500009D0D0684F000326BE40B0434F009E68C1
:10106000BE403043D0601E7906F00306022E13D135
:10107000CF0802F1200656F827004E07F70E0F267C
:10108000BE40B0434F07FF0E1E69BE403043CF083D
:1010900002F1200646F8270010684F000326BE40E4
:1010A000B0431E7906F003064F00BE403043106087
:1010B0005E6806F08056B6F1805F7DD100BF0026E5
:1010C0000096404E366846F480463E4F3E603E46AF
:1010D000366806F48046009600BF00BF3A4E8F087F
:1010E00056F827008E07370F0F26BE40B043374E05
:1010F000B24202D1002624E05EE0354EB24201D178
:1011000001261EE0334EB24201D1022619E0324ED2
:10111000B24201D1032614E0304EB24201D104267E
:101120000FE02F4EB24201D105260AE02D4EB24209
:1011300001D1062605E02C4EB24201D1072600E07F
:1011400008268F073F0FBE4030431F4E8F0846F8DA
:101150002700264E3068A0435E6806F48036B6F558
:10116000803F00D12043214E3060361D3068A043BF
:101170005E6806F40036B6F5003F00D120431B4EF2
:10118000361D3060361D3068A0435E6806F4801658
:10119000B6F5801F00D12043144E08363060361D4E
:1011A0003068A0435E6806F40016B6F5001F00D153
:1011B00020430E4E0C363060491C1029FFF41EAF40
:1011C000F8BD0000443802400838014000000240E9
:1011D0000004024000080240000C024000100240DF
:1011E0000014024000180240001C0240003C014074
:1011F000024613690B400BB1012000E0002070474C
:101200000AB1816101E00B04836170470148006805
:10121000000C7047002004E001480068704700009F
:101220001000002003480068034909780844014978
:1012300008607047100000201800002010B50A4810
:10124000006840F40070084908600846006840F4EF
:1012500080600860052000F07FF80F2000F006F89D
:1012600000F02AF8002010BD003C024070B5044692
:101270000E4800784FF47A71B1FBF0F00C49096820
:10128000B1FBF0F5284600F087FC08B1012070BDE5
:10129000102C07D200222146501E00F01EF80548EF
:1012A000046001E00120F2E70020F0E718000020D0
:1012B0000000002014000020704701460846002866
:1012C00009DB00F01F0301229A4043099B0003F150
:1012D000E023C3F8002100BF70472DE9F05F80468E
:1012E0000D461646002701F03FFB074639462A46C1
:1012F000334601F00700C0F1070ABAF1040F02D922
:101300004FF0040A01E0C0F1070AD14600F1040AD7
:10131000BAF1070F02D24FF0000A01E0A0F1030A70
:10132000D4464FF0010A0AFA09FAAAF1010A0AEAB8
:10133000020A0AFA0CFA4FF0010B0BFA0CFBABF1A4
:10134000010B0BEA030B4AEA0B042146404601F06D
:1013500013FBBDE8F09F000000BF00F00702064B42
:1013600019684FF6FF031940044B0B4343EA02216F
:10137000014B196000BF70470CED00E00000FA055A
:1013800070B504460D460CB9012070BD5848006880
:1013900000F00700A84209D255490D7008460068C0
:1013A00000F00700A84201D00120EEE7207800F00D
:1013B000020002281DD1207800F00400042805D185
:1013C0004C48006840F4E0504A490860207800F03A
:1013D0000800082805D14748006840F460404549A6
:1013E00008604448006820F0F000A16808434149C3
:1013F0000860207800F00100A8B36068012807D1D8
:101400003C4808380068C0F34040B8B90120BCE748
:101410006068022802D06068032807D13548083880
:101420000068C0F3406048B90120AEE73148083891
:101430000068C0F3400008B90120A6E72D48006805
:1014400020F00300616808432A490860FFF7E4FEC2
:10145000064609E0FFF7E0FE801B41F28831884232
:1014600002D9032091E707E02248006800F00C0051
:101470006168B0EB810FEDD11D48006800F00700F6
:10148000A84209D91A490D700846006800F0070003
:10149000A84201D0012078E7207800F00400042859
:1014A00007D11448006820F4E050E168084311496E
:1014B0000860207800F00800082808D10D4800686E
:1014C00020F46040216940EAC1000A49086000F048
:1014D0003FF808490968C1F30311074A515CC84045
:1014E0000649086006480068FFF7C0FE00204CE788
:1014F000003C0240083802400A8008080000002032
:10150000140000200148006870470000000000201F
:1015100000B5FFF7F7FF04490968C1F38221034AC8
:10152000515CC84000BD0000083802401A8008081D
:1015300000B5FFF7E7FF04490968C1F34231034AE8
:10154000515CC84000BD0000083802401A800808FD
:101550002DE9F047002400250026A1462548006813
:1015600000F00C0020B1042805D008283AD105E08D
:10157000DFF8849039E0DFF8849036E01D48001FE2
:10158000006800F03F041B48001F006800F4800062
:1015900078B11A481749091F0968C1F38811A0FBDF
:1015A00001700146224600233846FEF794FE0546A8
:1015B0000EE011480F49091F0968C1F38811A0FB0B
:1015C00001700146224600233846FEF784FE054698
:1015D0000848001F0068C0F30140401C4600B5FBEE
:1015E000F6F902E0DFF8109000BF00BF4846BDE802
:1015F000F0870000083802400024F40000127A004E
:10160000F8B504460CB90120F8BD207800F00100BF
:10161000002874D0F948006800F00C0004280DD0B0
:10162000F648006800F00C00082813D1F348001FAA
:10163000006800F48000B0F5800F0BD1EF48083847
:101640000068C0F34040002859D06068002856D197
:101650000120D9E700BF6068B0F5803F08D1E748B6
:101660000838006840F48030E449083908601EE01A
:101670006068B0F5A02F0DD1E0480838006840F44C
:101680008020DE49083908600846006840F4803050
:1016900008600CE0D9480838006820F48030D74949
:1016A000083908600846006820F48020086000BF00
:1016B000606890B1FFF7B0FD054606E0FFF7ACFDAE
:1016C000401B642801D903209EE7CC4808380068F5
:1016D000C0F340400028F1D011E0FFF79DFD054622
:1016E00006E0FFF799FD401B642801D903208BE732
:1016F000C24808380068C0F340400028F1D1207883
:1017000000F0020002285FD1BC48006800F00C0025
:1017100058B1BA48006800F00C0008281CD1B7483E
:10172000001F006800F48000B0B9B44808380068B1
:10173000C0F3400020B1E068012801D0012063E738
:10174000AE480838006820F0F800216940EAC1007E
:10175000AA490839086037E0E06800B30120A849C9
:101760000860FFF759FD054606E0FFF755FD401BF1
:10177000022801D9032047E7A04808380068C0F3D1
:1017800040000028F1D09D480838006820F0F8009B
:10179000216940EAC10099490839086014E0002035
:1017A00097490860FFF738FD054606E0FFF734FD6E
:1017B000401B022801D9032026E79048083800681A
:1017C000C0F340000028F1D1207800F0080008287C
:1017D0002CD16069A8B101208A490860FFF71CFD7F
:1017E000054606E0FFF718FD401B022801D903203B
:1017F0000AE782486C300068C0F340000028F1D04E
:1018000014E000207F490860FFF706FD054606E06A
:10181000FFF702FD401B022801D90320F4E67748B8
:101820006C300068C0F340000028F1D1207800F04F
:101830000400042870D1002770483830006800F098
:10184000805090B900BF002000906C48383000688C
:1018500040F080506949383108600846006800F05F
:101860008050009000BF00BF01276748006800F467
:101870008070B0B96448006840F4807062490860C4
:10188000FFF7CAFC054606E0FFF7C6FC401B02282E
:1018900001D90320B8E65C48006800F48070002895
:1018A000F2D000BFA068012808D154486830006811
:1018B00040F001005149683108601DE0A06805282A
:1018C0000DD14E486830006840F004004B49683143
:1018D00008600846006840F0010008600CE04748D6
:1018E0006830006820F0010044496831086008460B
:1018F000006820F00400086000BFA068A8B1FFF7EE
:101900008BFC054609E0FFF787FC401B41F288315C
:10191000884202D9032077E626E03848683000681C
:10192000C0F340000028EED013E0FFF775FC054639
:1019300008E0FFF771FC401B41F28831884201D971
:10194000032061E62D4868300068C0F3400000289D
:10195000EFD1012F07D129483830006820F080509E
:1019600026493831086000BFA069002845D02348C7
:10197000006800F00C0008285DD0A069022845D15D
:1019800000201F490866FFF747FC054606E0FFF701
:1019900043FC401B022801D9032035E617480838CC
:1019A0000068C0F340600028F1D1D4E90701084382
:1019B000616A40EA81110122A06AC2EB500041EA4B
:1019C00000412C20005D41EA00600C49091F0860BD
:1019D00001200B490866FFF71FFC054606E0FFF7EC
:1019E0001BFC401B022801D903200DE603480838E0
:1019F0000068C0F340600028F1D049E00838024098
:101A000000004742800E47420070004000202149FC
:101A10000866FFF701FC054606E0FFF7FDFB401BEB
:101A2000022801D90320EFE51B480068C0F340609D
:101A30000028F2D12CE0A069012800D1E4E5164885
:101A4000001D0668A069012820D006F48001E06925
:101A500081421BD106F03F01206A814216D147F630
:101A6000C0703040616AB0EB811F0FD106F4403185
:101A70000122A06AC2EB5000B1EB004F06D106F084
:101A800070612C20005DB1EB006F01D00120BBE53F
:101A90000020B9E5000047420038024070B5044616
:101AA0000E4615460CB9012070BD94F8490028B9BE
:101AB000002084F84800204600F01CF804F10801DA
:101AC0002068FFF713F93146A2682068FFF73CF958
:101AD0002946236BD4E90102FFF7E4F8A1682068E6
:101AE00050F8210040F00100A268216841F822006E
:101AF0000020D9E710B586B0044600BF0020009052
:101B00002248006840F0010020490860084600684B
:101B100000F00100009000BF00BF00BF0020009057
:101B20001A480838006840F0080018490839086069
:101B30000846006800F00800009000BF00BF00BF2A
:101B4000002000900846006840F010000860084639
:101B5000006800F01000009000BF00BF4CF203705E
:101B600001900220029001200390022004900C209A
:101B7000059001A90648FFF739FA4FF680700190E9
:101B800001A90448FFF732FA06B010BD3838024008
:101B9000000C02400010024070B504462546681E45
:101BA000B0F1807F01D301200FE0681E4FF0E021EB
:101BB00048610F214FF0FF3000F0DEFE00204FF0B3
:101BC000E021886107200861002070BD10B504463F
:101BD0000CB9012010BD94F83D0028B9002084F80C
:101BE0003C00204600F025F8022084F83D00211D2D
:101BF000206800F045FC012084F8460000BF84F80E
:101C00003E0001213F200155402001554120015552
:101C100000BF00BF012084F842004320015544204A
:101C200001554520015500BF012084F83D000020EA
:101C3000D0E77047014691F83D00012801D001200E
:101C40007047022081F83D000868C06840F001003C
:101C50000B68D8601A4B086898421BD00868B0F12E
:101C6000804F17D0174B0868984213D0164B08685E
:101C700098420FD0154B086898420BD0144B086857
:101C8000984207D0134B0868984203D0124B08685B
:101C900098420CD10868806800F00702062A0CD030
:101CA0000868006840F001000B68186005E00868EB
:101CB000006840F001000B6818600020C0E70000D9
:101CC000000001400004004000080040000C0040FB
:101CD0000004014000400140001800407047704778
:101CE0002DE9F84F0446206805682068C66820681A
:101CF00047694FF00009CA4605F00F09B9F1000F16
:101D00000AD105F0200038B106F0200020B12046AD
:101D100000F057FCBDE8F88FB9F1000F72D007F062
:101D2000010018B906F4907000286BD005F001008E
:101D300030B106F4807018B1206C40F001002064CE
:101D400005F0040030B107F0010018B1206C40F03C
:101D50000200206405F0020030B107F0010018B164
:101D6000206C40F00400206405F0080048B106F043
:101D7000200010B907F0010018B1206C40F00800F5
:101D80002064206C70B305F0200028B106F020001C
:101D900010B1204600F015FC20684069C0F3801A9D
:101DA000206C00F0080010B9BAF1000F23D02046D3
:101DB00000F0DCFB2068406900F04000402816D1AC
:101DC0002068406920F0400021684861A06B50B154
:101DD0005648A16B0865A06BFFF72DF810B1A06BFA
:101DE000016D88470CE02046FFF779FF08E02046A8
:101DF000FFF775FF04E02046FFF771FF0020206425
:101E000088E7FFE7206B012879D105F01000002852
:101E100075D006F01000002871D000BF002000909F
:101E200020680068009020684068009000BF00BFF4
:101E30002068406900F04000402839D1A06B00685C
:101E400040681FFA80F8B8F1000F30D0A08D4045EF
:101E50002DDDA4F82E80A06BC069B0F5807F1FD067
:101E60002068C06820F480702168C86020684069DC
:101E700020F00100216848612068406920F040009E
:101E800021684861202084F83E00002020632068FB
:101E9000C06820F010002168C860A06BFEF776FFD4
:101EA000A08DE28D801A81B22046FFF717FF31E73F
:101EB000A08DE18D401A1FFA80F8E08DE8B1B8F1ED
:101EC000000F1AD02068C06820F490702168C860A4
:101ED0002068406920F0010021684861202084F8D2
:101EE0003E00002020632068C06820F010002168B8
:101EF000C86041462046FFF7F1FE0BE7FFE705F01B
:101F0000800030B106F0800018B1204600F0F1FCEE
:101F100000E705F0400030B106F0400018B120465F
:101F200000F03FFBF6E600BFF4E600005925080884
:101F300010B504460CB9012010BDA06900B100E045
:101F400000BF94F83D0028B9002084F83C002046EA
:101F500000F028F8242084F83D002068C06820F4B0
:101F600000502168C860204600F08AFB20680069A4
:101F700020F49040216808612068406920F02A0020
:101F8000216848612068C06840F400502168C8603A
:101F900000202064202084F83D0084F83E000020CA
:101FA000CAE7000010B586B004462E492068884272
:101FB00055D100BF00BF002000902B48006840F0C2
:101FC0001000294908600846006800F010000090E1
:101FD00000BF00BF00BF00BF00BF0020009022482C
:101FE0001438006840F001001F49143908600846A1
:101FF000006800F00100009000BF00BF00BF00BFFC
:1020000000BF002000900846006840F00100086012
:102010000846006800F00100009000BF00BF00BF4C
:1020200048150190022002900120039002200490A4
:102030000720059001A90D48FEF7D8FF4FF48060F6
:1020400001900720059001A90848FEF7CFFF252041
:10205000FFF733F9032211462520FFF73EF906B0BA
:1020600010BD000000100140443802400000024052
:1020700070B504460D46164694F83E00202816D149
:1020800005B10EB9012070BD00BF94F83C000128D5
:1020900001D10220F7E7012084F83C0000BF0020B6
:1020A000206332462946204600F000FCEBE7022080
:1020B000E9E7000010B504462049206888423BD17A
:1020C0001F48008800F4004088BB1D48008800F4C9
:1020D000804070B11B4800780A2803D000201849BE
:1020E000088024E01648008840F400401449088025
:1020F0001DE0144800780D2806D11148008840F4EE
:1021000080400F49088012E00E4800780C49098889
:10211000C1F30D010C4A505409480088401C08497D
:10212000088008460088C72801DD002008800122B9
:1021300004490648FFF79CFF10BD00000010014055
:102140000C0000200E000020DC010020A402002072
:10215000704700BFFEE7000010B500200F4908607F
:102160000F48006820F440200D49086008460068C8
:1021700040F48020086000200A49C1F8A40202202F
:1021800000F03CFC012005490860022000F036FC0C
:1021900000200449C1F8A00210BD0000A082404206
:1021A000000402400080404200B587B000BF00201C
:1021B00001901048006840F002000E49086008468F
:1021C000006800F00200019000BF00BF4FF44070B3
:1021D00002900120039004900220059002A9064875
:1021E000FEF704FF0120054908600549C1F8A00277
:1021F00007B000BD3038024000040240A4824042D3
:102200000080404210B500200F4908600F48006868
:1022100020F440200D4908600846006840F4802002
:10222000086001200A49C1F8A402022000F0E6FB80
:10223000012005490860022000F0E0FB002004496D
:10224000C1F8A00210BD0000A0824042000402407C
:102250000080404270B5054600241648006820F40E
:10226000402014490860084600680860002616E00F
:10227000002011490860022000F0C0FB01200F4936
:10228000C1F8A0026006040E0B487C38006808B153
:10229000601CC4B2012000F0B1FB701CC6B2082E55
:1022A000E6DB15B9FFF7AEFF01E0FFF755FF20466B
:1022B00070BD000000040240A08240420080404205
:1022C00070B504461548006820F4402013490860A2
:1022D0000846006840F4802008600020104908602B
:1022E000002517E0E0090E49091D08606006040E8C
:1022F000022000F083FB01200A49C1F8A00202205D
:1023000000F07CFB002006490860022000F076FB0C
:10231000681CC5B2082DE5DB70BD0000000402405A
:10232000A08240420080404210B50F48006820F46F
:1023300040200D4908600846006840F4802008608D
:1023400001200A4908600A49C1F8A002042000F0EF
:1023500055FB002005490860042000F04FFB0020D9
:102360000349C1F8A00210BD00040240A48240420B
:102370000080404210B50F48006820F440200D490D
:1023800008600846006840F48020086000200A4980
:1023900008600A49C1F8A402042000F02FFB0120C4
:1023A000054908600549C1F8A402042000F026FB95
:1023B00010BD000000040240A08240420080404264
:1023C00010B500241148006820F440200F4908602F
:1023D000084600680860012000F010FB01200C494D
:1023E000086000F00BFB07E0601CC4B2FA2C03DDB0
:1023F000FFF7C0FF012010BD05487C3800680028A9
:10240000F2D10349086000BFF5E700000004024074
:10241000A082404200BFFEE770477047704710B58A
:10242000FEF700FF10BD00000348006840F4700094
:10243000014908607047000088ED00E010B50E48C3
:102440000068C06800F0010078B10C490869804755
:10245000002009490968486200BF642006490968EC
:10246000C86264210448C16000BF6FF001000249E6
:102470000968086110BD000068030020DC0000202E
:1024800010B50268294B98420ED0B0F1804F0BD0A6
:10249000274B984208D0274B984205D0264B9842AC
:1024A00002D0264B984203D122F070024B681A43A7
:1024B0001E4B984220D0B0F1804F1DD01C4B98424B
:1024C0001AD01C4B984217D01B4B984214D01B4B70
:1024D000984211D01A4B98420ED01A4B98420BD00A
:1024E000194B984208D0194B984205D0184B984286
:1024F00002D0184B984203D122F44072CB681A43A1
:1025000022F080034C6943EA040202608B68C362D4
:102510000B688362054B984202D0084B984201D168
:102520000B6903630123436110BD000000000140FB
:102530000004004000080040000C0040000401407E
:1025400000400140004401400048014000180040A4
:10255000001C00400020004070B50546AC6B002018
:10256000E085E0842046FFF7BAFB70BD0168C968CA
:1025700021F490710268D1600168496921F001017C
:1025800002685161016B012905D10168C96821F018
:1025900010010268D160202180F83E100021016303
:1025A000704710B504462068C06820F040002168DC
:1025B000C860202084F83D002046FFF7C9FD0020B8
:1025C00010BD70B5044694F83E00222856D1A0688C
:1025D000B0F5805F0CD1206950B90025A66A20684B
:1025E0004068C0F308003080A06A801CA06215E03B
:1025F000A56A0026A068B0F5805F03D0A06828B95E
:10260000206918B920684068287004E02068406894
:1026100000F07F002870A06A401CA062E08D401E80
:1026200080B2E08540BB2068C06820F020002168AF
:10263000C8602068C06820F480702168C860206885
:10264000406920F0010021684861202084F83E00A4
:10265000206B01280AD12068C06820F01000216892
:10266000C860A18D2046FFF739FB02E02046FFF746
:1026700021FD0020206370BD0020FCE70220FAE766
:102680002DE9F84F04462068006920F44050E168C5
:102690000843216808612169A0680843616908430B
:1026A000E169084300902068C06849F20C618843E2
:1026B000009908432168C8602068406920F4407090
:1026C000A16908432168486176492068884203D09F
:1026D00075492068884203D1FEF72AFF814602E04F
:1026E000FEF716FF8146E069B0F5004F6CD102207D
:1026F0006168A0FB015003461920A9FB0070014648
:102700002A463846FDF7E7FD6421B0FBF1F04FEAB9
:10271000001A02206168A0FB01510B461920A9FB99
:1027200000712A463846FDF7D6FD834602206168CF
:10273000A0FB015003461920A9FB00712A46384628
:10274000FDF7C9FD6421B0FBF1F000EBC00101EB26
:102750000010ABEB8000322101EBC0006421B0FB24
:10276000F1F000F0F8000AEB400A02206168A0FBDB
:10277000015003461920A9FB007001462A4638463D
:10278000FDF7A9FD834602206168A0FB01500346C6
:102790001920A9FB00712A463846FDF79CFD6421EB
:1027A000B0FBF1F000EBC00101EB0010ABEB8000DF
:1027B000322101EBC0006421B0FBF1F000F0070012
:1027C0005044216888606AE004206168A0FB0150E1
:1027D00003461920A9FB007001462A463846FDF73A
:1027E0007AFD824604206168A0FB0150034619204F
:1027F000A9FB007001462A463846FDF76CFD6421AE
:10280000B0FBF1F000EBC00101EB0010AAEB80007F
:10281000322101EB00106421B0FBF1F000F0F00A6E
:1028200004206168A0FB017003461920A9FB005138
:102830003A462846FDF74FFD6421B0FBF1F00AEB64
:10284000001A04206168A0FB01510B461920A9FB66
:1028500000712A463846FDF73EFD83460420616834
:10286000A0FB015003461920A9FB007001462A462F
:102870003846FDF730FD6421B0FBF1F000EBC001FC
:1028800001EB0010ABEB8000322101EB0010642162
:10289000B0FBF1F000F00F00504421688860BDE803
:1028A000F88F0000001001400014014010B50346ED
:1028B00099629A85DA8500201864222083F83E0008
:1028C00000BF002083F83C0000BF1868C06840F4D7
:1028D00080701C68E0601868406940F001001C6866
:1028E00060611868C06840F020001C68E06000204B
:1028F00010BD014691F83D00212828D18868B0F527
:10290000805F0BD1086948B90A6A1088C0F30800D3
:102910000B685860086A801C086205E00B6A581C46
:10292000086218780B685860C88C401E80B2C88452
:1029300058B90868C06820F080000B68D860086843
:10294000C06840F040000B68D8600020704702204B
:10295000FCE7000010B50248FFF7C2F910BD000007
:10296000A402002000BFFEE702480068C0F3022076
:10297000704700000CED00E010B5002804DB0A07EA
:10298000130E054A135406E00A07140E034A00F01A
:102990000F031B1FD45410BD00E400E018ED00E04D
:1029A00030380A2801D2012070470020704700BF4C
:1029B0007047000010B50C220249F320FDF79FFF7D
:1029C00010BD0000D001002010B50C220249F320F8
:1029D000FDF7D2FF10BD0000D001002001490860C2
:1029E000704700000400002010B504464FF47A71CF
:1029F00004FB01F000F002F810BD000070B50346C2
:102A000000224FF0E02675690D4E366803FB06F490
:102A10004FF0E026B16910E04FF0E026B06988423F
:102A20000BD0884202D20E1A324402E02E1A0E4413
:102A300032440146A24200D300E0EDE700BF70BD82
:102A40000400002000BF054A126802F04002002A7C
:102A5000F9D0C2B2014B5A6070470000001001402B
:102A600000B587B000BF00BF002001903848006863
:102A700040F01000364908600846006800F0100079
:102A8000019000BF00BF00BF00BF00BF0020019049
:102A90000846006840F0100008600846006800F032
:102AA0001000019000BF00BF00BF00BF00BF0020AA
:102AB00001900846006840F0100008600846006871
:102AC00000F01000019000BF00BF00BF00BF00BFBA
:102AD000002001900846006840F0010008600846A8
:102AE000006800F00100019000BF00BF00BF10208F
:102AF000029000200390012004900220059002A97A
:102B00001448FEF773FA0820029000200390012079
:102B100004900220059002A90E48FEF767FA0420EF
:102B2000029000200390012004900220059002A949
:102B30000848FEF75BFA0120029000200390022073
:102B40000490059002A90448FEF750FA07B000BDB2
:102B500030380240001002400000024070B50446C8
:102B6000002514B101202B4908702A48007800285C
:102B700034D010212848FEF73BFB78B108212648C5
:102B8000FEF736FB50B104212348FEF731FB28B194
:102B900001212248FEF72CFB01281FD10A20FFF754
:102BA00023FF00201B49087010211B48FEF720FB63
:102BB00000B9012508211848FEF71AFB00B90225C3
:102BC00004211548FEF714FB00B903250121134821
:102BD000FEF70EFB01281BD1042519E010210E4839
:102BE000FEF706FB012813D108210B48FEF700FB76
:102BF00001280DD104210848FEF7FAFA012807D16F
:102C000001210648FEF7F4FA10B9012001490870C5
:102C1000284670BD24000020001002400000024041
:102C200070B50446002609480588408845430021C0
:102C3000084603F041FA03F09BFC00BF02E00448A1
:102C40000480761CAE42FAD370BD00005803002009
:102C50008000006C10B5044658488471002C58D18F
:102C6000F020564908804FF4A070488008468088BC
:102C700045F21051884210D14FF430504F4908812D
:102C80004FF4285048814FF42C5088814FF4F07055
:102C900008804FF4487048801AE04848808841F620
:102CA000631188420DD12C20444908812B20488192
:102CB0002A2088814FF4F07008804FF448704880D3
:102CC00006E02C203D4908812A2048812B2088815C
:102CD0003A48808845F21031884205D037488088CC
:102CE00047F29671884206D14FF4A07033490880AC
:102CF0004FF4F07048803148808849F606018842D8
:102D000058D14FF4F0702D4908804FF44870488036
:102D100050E04FF4A07029490880F0204880084610
:102D2000808845F21051884210D14FF43050234929
:102D300008814FF4285048814FF42C5088814FF47B
:102D4000487008804FF4F070488020E01B4880886D
:102D500041F66311884205D01848808849F606017B
:102D600088420DD12C20154908812A2048812B202A
:102D700088814FF4487008804FF4F070488006E076
:102D80002C200E4908812A2048812B2088810B485D
:102D9000808845F21031884205D00848808847F283
:102DA0009671884206D14FF4F070044908804FF4C0
:102DB000A0704880002003F061F810BD5803002087
:102DC0002DE9F04706460F4690469A4600244546B0
:102DD0000320A0EB480944E07A1B91B2321990B26B
:102DE000524600F099F83A1B91B2721990B25246CD
:102DF00000F092F83A1991B2721990B2524600F06E
:102E00008BF87A1991B2321990B2524600F084F8D8
:102E10007A1991B2321B90B2524600F07DF83A19FD
:102E200091B2721B90B2524600F076F87A1B91B2C2
:102E3000321B90B2524600F06FF83A1B91B2721BEF
:102E400090B2524600F068F8641CB9F1000F03DA42
:102E5000A000801D814404E0601B80000A30814492
:102E60006D1EAC42B8DDBDE8F0872DE9FF4F84B0A0
:102E700081468A460020029083460698A0EB090509
:102E80000798A0EB0A06CDF80490CDF800A0002D1D
:102E900001DD012705E00DB9002702E04FF0FF3703
:102EA0006D42002E02DD4FF0010806E016B94FF02A
:102EB000000802E04FF0FF387642B54201DD2C46B3
:102EC00000E03446002003901EE0009A91B2019A7F
:102ED00090B2119A00F020F8029828440290B3446E
:102EE0000298A04205DD0298001B02900198384428
:102EF0000190A34504DDABEB040B00984044009027
:102F00000398401C80B20390611C03988842DCDD6A
:102F100008B0BDE8F08F000070B505460E461446B7
:102F20003146284603F0C8F803F022FB01490C8023
:102F300070BD00008000006C2DE9F84105460E468A
:102F400017469846079C33463A4631462846009431
:102F5000FFF78BFF43462A46314628460094FFF789
:102F600084FF43463A46414628460094FFF77DFFDA
:102F700043463A46314638460094FFF776FFBDE8AF
:102F8000F88110B5CF2003F0E7FA002003F0D8FA5B
:102F9000C12003F0D5FA302003F0D2FAED2003F07F
:102FA000DBFA642003F0CCFA032003F0C9FA122004
:102FB00003F0C6FA812003F0C3FAE82003F0CCFA4C
:102FC000852003F0BDFA102003F0BAFA7A2003F04E
:102FD000B7FACB2003F0C0FA392003F0B1FA2C2065
:102FE00003F0AEFA002003F0ABFA342003F0A8FAA5
:102FF000022003F0A5FAF72003F0AEFA202003F038
:103000009FFAEA2003F0A8FA002003F099FA0020C2
:1030100003F096FAC02003F09FFA1B2003F090FA09
:10302000C12003F099FA012003F08AFAC52003F0C9
:1030300093FA302003F084FA302003F081FAC7209D
:1030400003F08AFAB72003F07BFA362003F084FA03
:10305000482003F075FA3A2003F07EFA552003F079
:103060006FFAB12003F078FA002003F069FA1A2011
:1030700003F066FAB62003F06FFA0A2003F060FA54
:10308000A22003F05DFAF22003F066FA002003F0BC
:1030900057FA262003F060FA012003F051FAE020ED
:1030A00003F05AFA0F2003F04BFA2A2003F048FAF3
:1030B000282003F045FA082003F042FA0E2003F01E
:1030C0003FFA082003F03CFA542003F039FAA92013
:1030D00003F036FA432003F033FA0A2003F030FA03
:1030E0000F2003F02DFA002003F02AFA002003F04D
:1030F00027FA002003F024FA002003F021FAE1204F
:1031000003F02AFA002003F01BFA152003F018FA46
:10311000172003F015FA072003F012FA112003F02C
:103120000FFA062003F00CFA2B2003F009FA5620C0
:1031300003F006FA3C2003F003FA052003F000FA3E
:10314000102003F0FDF90F2003F0FAF93F2003F0FF
:10315000F7F93F2003F0F4F90F2003F0F1F92B20E9
:1031600003F0FAF9002003F0EBF9002003F0E8F98E
:10317000012003F0E5F93F2003F0E2F92A2003F0F3
:10318000EBF9002003F0DCF9002003F0D9F900206E
:1031900003F0D6F9EF2003F0D3F9112003F0DCF9A6
:1031A0007820FFF721FC292003F0D6F910BD10B5D7
:1031B000FF2003F0D1F9FF2003F0C2F9982003F0BB
:1031C000BFF9062003F0BCF9BC2003F0C5F90120CB
:1031D00003F0B6F90F2003F0B3F9612003F0B0F962
:1031E000FF2003F0ADF9012003F0AAF9012003F05C
:1031F000A7F90B2003F0A4F9102003F0A1F9372060
:1032000003F09EF9632003F09BF9FF2003F098F987
:10321000FF2003F095F9012003F092F9012003F05B
:103220008FF9002003F08CF9002003F089F9FF20CA
:1032300003F086F9522003F083F9012003F080F9AE
:10324000002003F07DF9402003F07AF9BD2003F05F
:1032500083F9012003F074F9232003F071F945206C
:1032600003F06EF9672003F06BF9012003F068F9B1
:10327000232003F065F9452003F062F9672003F08D
:103280005FF9BE2003F068F9002003F059F901202E
:1032900003F056F9AB2003F053F9602003F050F926
:1032A000222003F04DF9222003F04AF9222003F0F6
:1032B00047F9222003F044F9222003F041F9C72006
:1032C00003F04AF9362003F03BF9ED2003F044F90E
:1032D0007F2003F035F90F2003F032F9C02003F00E
:1032E0003BF90F2003F02CF90B2003F029F90A20F9
:1032F00003F026F9FC2003F02FF9082003F020F951
:10330000DF2003F029F9002003F01AF9002003F070
:1033100017F9002003F014F9002003F011F9002040
:1033200003F00EF9202003F00BF9F32003F014F959
:10333000742003F005F9B42003F00EF9002003F027
:10334000FFF8002003F0FCF8002003F0F9F8F72064
:1033500003F002F9822003F0F3F8B12003F0FCF847
:10336000002003F0EDF8132003F0EAF8132003F037
:10337000E7F8F22003F0F0F8802003F0E1F80420F1
:1033800003F0DEF8402003F0DBF8282003F0D8F843
:10339000C12003F0E1F8172003F0D2F8882003F0F1
:1033A000CFF8882003F0CCF8202003F0C9F8E02003
:1033B00003F0D2F8002003F0C3F80A2003F0C0F8AD
:1033C000122003F0BDF8102003F0BAF80E2003F02D
:1033D000B7F8202003F0B4F8CC2003F0B1F80720B0
:1033E00003F0AEF8062003F0ABF80B2003F0A8F8CA
:1033F0000E2003F0A5F80F2003F0A2F80D2003F033
:103400009FF8152003F09CF8102003F099F8002095
:1034100003F096F8E12003F09FF8002003F090F805
:103420000B2003F08DF8132003F08AF80D2003F031
:1034300087F80E2003F084F81B2003F081F8712038
:1034400003F07EF8062003F07BF8062003F078F8FE
:103450000A2003F075F80F2003F072F80E2003F035
:103460006FF80F2003F06CF8152003F069F80C20BA
:1034700003F066F8002003F063F82A2003F06CF8EC
:10348000002003F05DF8002003F05AF8012003F05B
:1034900057F8DF2003F054F82B2003F05DF80020EC
:1034A00003F04EF8002003F04BF8032003F048F837
:1034B0001F2003F045F83A2003F04EF8552003F0A2
:1034C0003FF8362003F048F8002003F039F81120C7
:1034D00003F042F87820FFF787FA292003F03CF840
:1034E0001420FFF781FA2C2003F036F810BD10B538
:1034F000ED2003F031F8012003F022F8FE2003F064
:103500001FF8EE2003F028F8DE2003F019F8212040
:1035100003F016F8F12003F01FF8012003F010F873
:10352000DF2003F019F8102003F00AF8C42003F09C
:1035300013F88F2003F004F8C62003F00DF80020E4
:1035400002F0FEFFE22002F0FBFFE22002F0F8FFB3
:10355000E22002F0F5FFBF2002F0FEFFAA2002F0F9
:10356000EFFFB02002F0F8FF0D2002F0E9FF00208D
:1035700002F0E6FF0D2002F0E3FF002002F0E0FF82
:10358000112002F0DDFF002002F0DAFF192002F026
:10359000D7FF002002F0D4FF212002F0D1FF00204D
:1035A00002F0CEFF2D2002F0CBFF002002F0C8FF7A
:1035B0003D2002F0C5FF002002F0C2FF5D2002F0B6
:1035C000BFFF002002F0BCFF5D2002F0B9FF002029
:1035D00002F0B6FFB12002F0BFFF802002F0B0FF82
:1035E000002002F0ADFF8B2002F0AAFF002002F0C5
:1035F000A7FF962002F0A4FF002002F0A1FFB22056
:1036000002F0AAFF002002F09BFF002002F098FFCA
:10361000022002F095FF002002F092FF032002F04A
:103620008FFF002002F08CFFB32002F095FF0020F6
:1036300002F086FF002002F083FF002002F080FFEE
:10364000002002F07DFF002002F07AFF002002F04F
:1036500077FF002002F074FF002002F071FF0020CD
:1036600002F06EFF002002F06BFF002002F068FF06
:10367000002002F065FF002002F062FF002002F04F
:103680005FFF002002F05CFF002002F059FF0020E5
:1036900002F056FF002002F053FF002002F050FF1E
:1036A000002002F04DFF002002F04AFF002002F04F
:1036B00047FF002002F044FF002002F041FFB42049
:1036C00002F04AFF8B2002F03BFF002002F038FF9F
:1036D000962002F035FF002002F032FFA12002F018
:1036E0002FFF002002F02CFFB52002F035FF022052
:1036F00002F026FF002002F023FF032002F020FF4B
:10370000002002F01DFF042002F01AFF002002F04A
:1037100017FFB62002F020FF002002F011FF00206A
:1037200002F00EFFB72002F017FF002002F008FFA2
:10373000002002F005FF3F2002F002FF002002F00F
:10374000FFFE5E2002F0FCFE002002F0F9FE642085
:1037500002F0F6FE002002F0F3FE8C2002F0F0FEF4
:10376000002002F0EDFEAC2002F0EAFE002002F0A4
:10377000E7FEDC2002F0E4FE002002F0E1FE702013
:1037800002F0DEFE002002F0DBFE902002F0D8FE08
:10379000002002F0D5FEEB2002F0D2FE002002F065
:1037A000CFFEDC2002F0CCFE002002F0C9FEB820E3
:1037B00002F0D2FE002002F0C3FE002002F0C0FEA4
:1037C000002002F0BDFE002002F0BAFE002002F050
:1037D000B7FE002002F0B4FE002002F0B1FE00208F
:1037E00002F0AEFEBA2002F0B7FE242002F0A8FEDE
:1037F000002002F0A5FE002002F0A2FE002002F050
:103800009FFEC12002F0A8FE202002F099FE0020B9
:1038100002F096FE542002F093FE002002F090FE8B
:10382000FF2002F08DFE002002F08AFEC22002F08E
:1038300093FE0A2002F084FE002002F081FE0420A4
:1038400002F07EFE002002F07BFEC32002F084FE28
:103850003C2002F075FE002002F072FE3A2002F0D9
:103860006FFE002002F06CFE392002F069FE00209D
:1038700002F066FE372002F063FE002002F060FED8
:103880003C2002F05DFE002002F05AFE362002F0DD
:1038900057FE002002F054FE322002F051FE0020BC
:1038A00002F04EFE2F2002F04BFE002002F048FEF8
:1038B0002C2002F045FE002002F042FE292002F0FA
:1038C0003FFE002002F03CFE262002F039FE0020E0
:1038D00002F036FE242002F033FE002002F030FE1B
:1038E000242002F02DFE002002F02AFE232002F008
:1038F00027FE002002F024FE3C2002F021FE0020E2
:1039000002F01EFE362002F01BFE002002F018FE20
:10391000322002F015FE002002F012FE2F2002F0ED
:103920000FFE002002F00CFE2C2002F009FE002009
:1039300002F006FE292002F003FE002002F000FE45
:10394000262002F0FDFD002002F0FAFD242002F006
:10395000F7FD002002F0F4FD242002F0F1FD00202C
:1039600002F0EEFD232002F0EBFD002002F0E8FD66
:10397000C42002F0F1FD622002F0E2FD002002F01E
:10398000DFFD052002F0DCFD002002F0D9FD8420DF
:1039900002F0D6FD002002F0D3FDF02002F0D0FDB1
:1039A000002002F0CDFD182002F0CAFD002002F038
:1039B000C7FDA42002F0C4FD002002F0C1FD1820C4
:1039C00002F0BEFD002002F0BBFD502002F0B8FD69
:1039D000002002F0B5FD0C2002F0B2FD002002F044
:1039E000AFFD172002F0ACFD002002F0A9FD9520EC
:1039F00002F0A6FD002002F0A3FDF32002F0A0FDDE
:103A0000002002F09DFDE62002F09AFD002002F069
:103A100097FDC52002F0A0FD322002F091FD0020AC
:103A200002F08EFD442002F08BFD002002F088FDA4
:103A3000652002F085FD002002F082FD762002F074
:103A40007FFD002002F07CFD882002F079FD00203F
:103A500002F076FDC62002F07FFD202002F070FD0E
:103A6000002002F06DFD172002F06AFD002002F038
:103A700067FD012002F064FD002002F061FDC72017
:103A800002F06AFD002002F05BFD002002F058FD0C
:103A9000002002F055FD002002F052FDC82002F087
:103AA0005BFD002002F04CFD002002F049FD0020EB
:103AB00002F046FD002002F043FDC92002F04CFD5B
:103AC000002002F03DFD002002F03AFD002002F04F
:103AD00037FD002002F034FD002002F031FD00200F
:103AE00002F02EFD002002F02BFD002002F028FD48
:103AF000002002F025FD002002F022FD002002F04F
:103B00001FFD002002F01CFD002002F019FD002026
:103B100002F016FD002002F013FD002002F010FD5F
:103B2000E02002F019FD162002F00AFD002002F04C
:103B300007FD1C2002F004FD002002F001FD212001
:103B400002F0FEFC002002F0FBFC362002F0F8FC44
:103B5000002002F0F5FC462002F0F2FC002002F00A
:103B6000EFFC522002F0ECFC002002F0E9FC6420A3
:103B700002F0E6FC002002F0E3FC7A2002F0E0FC18
:103B8000002002F0DDFC8B2002F0DAFC002002F0C5
:103B9000D7FC992002F0D4FC002002F0D1FCA82030
:103BA00002F0CEFC002002F0CBFCB92002F0C8FCF1
:103BB000002002F0C5FCC42002F0C2FC002002F08C
:103BC000BFFCCA2002F0BCFC002002F0B9FCD220ED
:103BD00002F0B6FC002002F0B3FCD92002F0B0FCE9
:103BE000002002F0ADFCE02002F0AAFC002002F070
:103BF000A7FCF32002F0A4FC002002F0A1FCE120CD
:103C000002F0AAFC162002F09BFC002002F098FCB7
:103C10001C2002F095FC002002F092FC222002F011
:103C20008FFC002002F08CFC362002F089FC002082
:103C300002F086FC452002F083FC002002F080FCAC
:103C4000522002F07DFC002002F07AFC642002F099
:103C500077FC002002F074FC7A2002F071FC002056
:103C600002F06EFC8B2002F06BFC002002F068FC7E
:103C7000992002F065FC002002F062FCA82002F00E
:103C80005FFC002002F05CFCB92002F059FC00202F
:103C900002F056FCC42002F053FC002002F050FC5D
:103CA000CA2002F04DFC002002F04AFCD22002F0B3
:103CB00047FC002002F044FCD82002F041FC002028
:103CC00002F03EFCE02002F03BFC002002F038FC59
:103CD000F32002F035FC002002F032FCE22002F07A
:103CE0003BFC052002F02CFC002002F029FC0B20FC
:103CF00002F026FC002002F023FC1B2002F020FC36
:103D0000002002F01DFC342002F01AFC002002F01A
:103D100017FC442002F014FC002002F011FC4F209C
:103D200002F00EFC002002F00BFC612002F008FC07
:103D3000002002F005FC792002F002FC002002F0D5
:103D4000FFFB882002F0FCFB002002F0F9FB97202B
:103D500002F0F6FB002002F0F3FBA62002F0F0FBDD
:103D6000002002F0EDFBB72002F0EAFB002002F099
:103D7000E7FBC22002F0E4FB002002F0E1FBC720D9
:103D800002F0DEFB002002F0DBFBD12002F0D8FBCA
:103D9000002002F0D5FBD62002F0D2FB002002F07A
:103DA000CFFBDD2002F0CCFB002002F0C9FBF320AA
:103DB00002F0C6FB002002F0C3FBE32002F0CCFBC4
:103DC000052002F0BDFB002002F0BAFB0A2002F041
:103DD000B7FB002002F0B4FB1C2002F0B1FB002076
:103DE00002F0AEFB332002F0ABFB002002F0A8FB98
:103DF000442002F0A5FB002002F0A2FB502002F0BC
:103E00009FFB002002F09CFB622002F099FB002047
:103E100002F096FB782002F093FB002002F090FB6A
:103E2000882002F08DFB002002F08AFB972002F030
:103E300087FB002002F084FBA62002F081FB00201B
:103E400002F07EFBB72002F07BFB002002F078FB43
:103E5000C22002F075FB002002F072FBC72002F0C6
:103E60006FFB002002F06CFBD12002F069FB002008
:103E700002F066FBD52002F063FB002002F060FB3D
:103E8000DD2002F05DFB002002F05AFBF32002F07F
:103E900057FB002002F054FBE42002F05DFB012000
:103EA00002F04EFB002002F04BFB012002F048FB29
:103EB000002002F045FB022002F042FB002002F04D
:103EC0003FFB2A2002F03CFB002002F039FB3C20A3
:103ED00002F036FB002002F033FB4B2002F030FBF7
:103EE000002002F02DFB5D2002F02AFB002002F0F2
:103EF00027FB742002F024FB002002F021FB842029
:103F000002F01EFB002002F01BFB932002F018FBC6
:103F1000002002F015FBA22002F012FB002002F0AC
:103F20000FFBB32002F00CFB002002F009FBBE20C7
:103F300002F006FB002002F003FBC42002F000FBAD
:103F4000002002F0FDFACD2002F0FAFA002002F083
:103F5000F7FAD32002F0F4FA002002F0F1FADD20A3
:103F600002F0EEFA002002F0EBFAF32002F0E8FA99
:103F7000002002F0E5FAE52002F0EEFA002002F05F
:103F8000DFFA002002F0DCFA002002F0D9FA00206B
:103F900002F0D6FA022002F0D3FA002002F0D0FAA2
:103FA000292002F0CDFA002002F0CAFA3C2002F0EB
:103FB000C7FA002002F0C4FA4B2002F0C1FA002038
:103FC00002F0BEFA5D2002F0BBFA002002F0B8FA5F
:103FD000742002F0B5FA002002F0B2FA842002F058
:103FE000AFFA002002F0ACFA932002F0A9FA002008
:103FF00002F0A6FAA22002F0A3FA002002F0A0FA32
:10400000B32002F09DFA002002F09AFABE2002F0DE
:1040100097FA002002F094FAC42002F091FA0020EE
:1040200002F08EFACD2002F08BFA002002F088FA1E
:10403000D32002F085FA002002F082FADC2002F0A0
:104040007FFA002002F07CFAF32002F079FA0020D7
:1040500002F076FAE62002F07FFA112002F070FA00
:10406000002002F06DFA342002F06AFA002002F01B
:1040700067FA562002F064FA002002F061FA762016
:1040800002F05EFA002002F05BFA772002F058FAA4
:10409000002002F055FA662002F052FA002002F0E9
:1040A0004FFA882002F04CFA002002F049FA9920D9
:1040B00002F046FA002002F043FABB2002F040FA78
:1040C000002002F03DFA992002F03AFA002002F0B6
:1040D00037FA662002F034FA002002F031FA552057
:1040E00002F02EFA002002F02BFA552002F028FAF6
:1040F000002002F025FA452002F022FA002002F00A
:104100001FFA432002F01CFA002002F019FA4420A2
:1041100002F016FA002002F013FAE72002F01CFA6F
:10412000322002F00DFA002002F00AFA552002F0C7
:1041300007FA002002F004FA762002F001FA0020CB
:1041400002F0FEF9662002F0FBF9002002F0F8F917
:10415000672002F0F5F9002002F0F2F9672002F082
:10416000EFF9002002F0ECF9872002F0E9F90020D5
:1041700002F0E6F9992002F0E3F9002002F0E0F9FC
:10418000BB2002F0DDF9002002F0DAF9992002F0FC
:10419000D7F9002002F0D4F9772002F0D1F90020FD
:1041A00002F0CEF9442002F0CBF9002002F0C8F969
:1041B000562002F0C5F9002002F0C2F9232002F0D7
:1041C000BFF9002002F0BCF9332002F0B9F9002059
:1041D00002F0B6F9452002F0B3F9002002F0B0F980
:1041E000E82002F0B9F9002002F0AAF9002002F05C
:1041F000A7F9992002F0A4F9002002F0A1F9872084
:1042000002F09EF9002002F09BF9882002F098F954
:10421000002002F095F9772002F092F9002002F0D8
:104220008FF9662002F08CF9002002F089F98820CD
:1042300002F086F9002002F083F9AA2002F080F94A
:10424000002002F07DF9BB2002F07AF9002002F094
:1042500077F9992002F074F9002002F071F96620D4
:1042600002F06EF9002002F06BF9552002F068F9B7
:10427000002002F065F9552002F062F9002002F0FA
:104280005FF9442002F05CF9002002F059F9442063
:1042900002F056F9002002F053F9552002F050F9CF
:1042A000002002F04DF9E92002F056F9AA2002F0B0
:1042B00047F9002002F044F9002002F041F9002003
:1042C00002F03EF9002002F047F9AA2002F038F986
:1042D000CF2002F041F9002002F032F9002002F074
:1042E0002FF9002002F02CF9002002F029F900201B
:1042F00002F026F9002002F023F9002002F020F954
:10430000002002F01DF9002002F01AF9002002F04E
:1043100017F9002002F014F9002002F011F9002032
:1043200002F00EF9002002F00BF9002002F008F96B
:10433000002002F005F9002002F002F9F02002F05E
:104340000BF9002002F0FCF8502002F0F9F80020F0
:1043500002F0F6F8002002F0F3F8002002F0F0F886
:10436000F32002F0F9F8002002F0EAF8F92002F058
:10437000F3F8062002F0E4F8102002F0E1F829201A
:1043800002F0DEF8002002F0DBF83A2002F0E4F858
:10439000552002F0D5F8112002F0DEF86420FEF777
:1043A00023FB292002F0D8F8352002F0D5F80020B0
:1043B00002F0C6F8512002F0CFF8FF2002F0C0F85A
:1043C000532002F0C9F82C2002F0BAF8552002F070
:1043D000C3F8822002F0B4F82C2002F0BDF810BD22
:1043E00010B555214FF4704002F0CCF8AA214FF2DD
:1043F000010002F0C7F852214FF2020002F0C2F8A9
:1044000008214FF2030002F0BDF801214FF2040031
:1044100002F0B8F834214FF4364002F0B3F83421FA
:104420004BF2016002F0AEF834214BF2026002F070
:10443000A9F80D214FF4304002F0A4F80D214BF201
:10444000010002F09FF80D214BF2020002F09AF8F1
:1044500024214FF4374002F095F824214BF20170EB
:1044600002F090F824214BF2027002F08BF80D213B
:104470004FF4314002F086F80D214BF2011002F0AA
:1044800081F80D214BF2021002F07CF824214FF448
:10449000384002F077F824214BF6010002F072F860
:1044A00024214BF6020002F06DF800214FF4324057
:1044B00002F068F824214FF4394002F063F8242117
:1044C0004BF6011002F05EF824214BF6021002F0C8
:1044D00059F805214FF4334002F054F805214BF20E
:1044E000013002F04FF805214BF2023002F04AF899
:1044F00034214FF43A4002F045F834214BF60120C4
:1045000002F040F834214BF6022002F03BF80B2178
:104510004FF4354002F036F80B214BF2015002F017
:1045200031F80B214BF2025002F02CF800214FF42D
:104530003C4002F027F8A3214BF6014002F022F89C
:1045400000214BF6024002F01DF800214FF43D40DF
:1045500002F018F8A3214BF6015002F013F80021E5
:104560004BF6025002F00EF800214FF43E4002F0EC
:1045700009F837214BF6016002F004F800214FF4EE
:10458000514001F0FFFF37214DF2011001F0FAFF19
:1045900000214DF2021001F0F5FF53214DF20310FE
:1045A00001F0F0FF00214DF2041001F0EBFF792142
:1045B0004DF2051001F0E6FF00214DF2061001F06A
:1045C000E1FF97214DF2071001F0DCFF00214DF2D1
:1045D000081001F0D7FFB1214DF2091001F0D2FF10
:1045E00000214DF20A1001F0CDFFD5214DF20B1044
:1045F00001F0C8FF00214DF20C1001F0C3FFF421BF
:104600004DF20D1001F0BEFF01214DF20E1001F030
:10461000B9FF23214DF20F1001F0B4FF01214DF23B
:10462000101001F0AFFF49214DF2111001F0AAFF67
:1046300001214DF2121001F0A5FF87214DF2131058
:1046400001F0A0FF01214DF2141001F09BFFB621F3
:104650004DF2151001F096FF02214DF2161001F0F7
:1046600091FF00214DF2171001F08CFF02214DF255
:10467000181001F087FF3B214DF2191001F082FF65
:1046800002214DF21A1001F07DFF3D214DF21B1069
:1046900001F078FF02214DF21C1001F073FF75212B
:1046A0004DF21D1001F06EFF02214DF21E1001F0BF
:1046B00069FFB1214DF21F1001F064FF02214DF29C
:1046C000201001F05FFFD5214DF2211001F05AFFBB
:1046D00003214DF2221001F055FF09214DF2231064
:1046E00001F050FF03214DF2241001F04BFF28216F
:1046F0004DF2251001F046FF03214DF2261001F086
:1047000041FF52214DF2271001F03CFF03214DF2F1
:10471000281001F037FF6B214DF2291001F032FF14
:1047200003214DF22A1001F02DFF8D214DF22B10A7
:1047300001F028FF03214DF22C1001F023FFA221EC
:104740004DF22D1001F01EFF03214DF22E1001F04D
:1047500019FFBB214DF22F1001F014FF03214DF280
:10476000301001F00FFFC1214DF2311001F00AFFAE
:1047700003214DF2321001F005FFC1214DF233103B
:1047800001F000FF00214FF4524001F0FBFE372101
:104790004DF2012001F0F6FE00214DF2022001F061
:1047A000F1FE53214DF2032001F0ECFE00214DF209
:1047B000042001F0E7FE79214DF2052001F0E2FE30
:1047C00000214DF2062001F0DDFE97214DF2072079
:1047D00001F0D8FE00214DF2082001F0D3FEB121F6
:1047E0004DF2092001F0CEFE00214DF20A2001F029
:1047F000C9FED5214DF20B2001F0C4FE00214DF27F
:104800000C2001F0BFFEF4214DF20D2001F0BAFEA4
:1048100001214DF20E2001F0B5FE23214DF20F20B3
:1048200001F0B0FE01214DF2102001F0ABFE492154
:104830004DF2112001F0A6FE01214DF2122001F0EF
:10484000A1FE87214DF2132001F09CFE01214DF2C3
:10485000142001F097FEB6214DF2152001F092FED2
:1048600002214DF2162001F08DFE00214DF217209D
:1048700001F088FE02214DF2182001F083FE3B2159
:104880004DF2192001F07EFE02214DF21A2001F0B6
:1048900079FE3D214DF21B2001F074FE02214DF204
:1048A0001C2001F06FFE75214DF21D2001F06AFE03
:1048B00002214DF21E2001F065FEB1214DF21F20B4
:1048C00001F060FE02214DF2202001F05BFED521B7
:1048D0004DF2212001F056FE03214DF2222001F07D
:1048E00051FE09214DF2232001F04CFE03214DF22F
:1048F000242001F047FE28214DF2252001F042FE40
:1049000003214DF2262001F03DFE52214DF22720D9
:1049100001F038FE03214DF2282001F033FE6B2117
:104920004DF2292001F02EFE03214DF22A2001F044
:1049300029FE8D214DF22B2001F024FE03214DF2A2
:104940002C2001F01FFEA2214DF22D2001F01AFEB5
:1049500003214DF22E2001F015FEBB214DF22F2038
:1049600001F010FE03214DF2302001F00BFEC121B9
:104970004DF2312001F006FE03214DF2322001F00C
:1049800001FEC1214DF2332001F0FCFD00214FF466
:10499000534001F0F7FD37214DF2013001F0F2FDF7
:1049A00000214DF2023001F0EDFD53214DF20330B4
:1049B00001F0E8FD00214DF2043001F0E3FD792122
:1049C0004DF2053001F0DEFD00214DF2063001F020
:1049D000D9FD97214DF2073001F0D4FD00214DF2B1
:1049E000083001F0CFFDB1214DF2093001F0CAFDD0
:1049F00000214DF20A3001F0C5FDD5214DF20B30FA
:104A000001F0C0FD00214DF20C3001F0BBFDF4219E
:104A10004DF20D3001F0B6FD01214DF20E3001F0E6
:104A2000B1FD23214DF20F3001F0ACFD01214DF21B
:104A3000103001F0A7FD49214DF2113001F0A2FD27
:104A400001214DF2123001F09DFD87214DF213300E
:104A500001F098FD01214DF2143001F093FDB621D3
:104A60004DF2153001F08EFD02214DF2163001F0AD
:104A700089FD00214DF2173001F084FD02214DF235
:104A8000183001F07FFD3B214DF2193001F07AFD25
:104A900002214DF21A3001F075FD3D214DF21B301F
:104AA00001F070FD02214DF21C3001F06BFD75210B
:104AB0004DF21D3001F066FD02214DF21E3001F075
:104AC00061FDB1214DF21F3001F05CFD02214DF27C
:104AD000203001F057FDD5214DF2213001F052FD7B
:104AE00003214DF2223001F04DFD09214DF223301A
:104AF00001F048FD03214DF2243001F043FD28214F
:104B00004DF2253001F03EFD03214DF2263001F03B
:104B100039FD52214DF2273001F034FD03214DF2D1
:104B2000283001F02FFD6B214DF2293001F02AFDD4
:104B300003214DF22A3001F025FD8D214DF22B305D
:104B400001F020FD03214DF22C3001F01BFDA221CC
:104B50004DF22D3001F016FD03214DF22E3001F003
:104B600011FDBB214DF22F3001F00CFD03214DF260
:104B7000303001F007FDC1214DF2313001F002FD6E
:104B800003214DF2323001F0FDFCC1214DF23330F2
:104B900001F0F8FC00214FF4544001F0F3FC372100
:104BA0004DF2014001F0EEFC00214DF2024001F017
:104BB000E9FC53214DF2034001F0E4FC00214DF2E9
:104BC000044001F0DFFC79214DF2054001F0DAFCF0
:104BD00000214DF2064001F0D5FC97214DF207402F
:104BE00001F0D0FC00214DF2084001F0CBFCB121D6
:104BF0004DF2094001F0C6FC00214DF20A4001F0DF
:104C0000C1FCD5214DF20B4001F0BCFC00214DF25E
:104C10000C4001F0B7FCF4214DF20D4001F0B2FC64
:104C200001214DF20E4001F0ADFC23214DF20F4069
:104C300001F0A8FC01214DF2104001F0A3FC492134
:104C40004DF2114001F09EFC01214DF2124001F0A5
:104C500099FC87214DF2134001F094FC01214DF2A3
:104C6000144001F08FFCB6214DF2154001F08AFC92
:104C700002214DF2164001F085FC00214DF2174053
:104C800001F080FC02214DF2184001F07BFC3B2139
:104C90004DF2194001F076FC02214DF21A4001F06C
:104CA00071FC3D214DF21B4001F06CFC02214DF2E4
:104CB0001C4001F067FC75214DF21D4001F062FCC3
:104CC00002214DF21E4001F05DFCB1214DF21F406A
:104CD00001F058FC02214DF2204001F053FCD52197
:104CE0004DF2214001F04EFC03214DF2224001F033
:104CF00049FC09214DF2234001F044FC03214DF20F
:104D0000244001F03FFC28214DF2254001F03AFCFF
:104D100003214DF2264001F035FC52214DF227408F
:104D200001F030FC03214DF2284001F02BFC6B21F7
:104D30004DF2294001F026FC03214DF22A4001F0FA
:104D400021FC8D214DF22B4001F01CFC03214DF282
:104D50002C4001F017FCA2214DF22D4001F012FC75
:104D600003214DF22E4001F00DFCBB214DF22F40EE
:104D700001F008FC03214DF2304001F003FCC12199
:104D80004DF2314001F0FEFB03214DF2324001F0C3
:104D9000F9FBC1214DF2334001F0F4FB00214FF447
:104DA000554001F0EFFB37214DF2015001F0EAFBD5
:104DB00000214DF2025001F0E5FB53214DF203506A
:104DC00001F0E0FB00214DF2045001F0DBFB792102
:104DD0004DF2055001F0D6FB00214DF2065001F0D6
:104DE000D1FB97214DF2075001F0CCFB00214DF291
:104DF000085001F0C7FBB1214DF2095001F0C2FB90
:104E000000214DF20A5001F0BDFBD5214DF20B50AF
:104E100001F0B8FB00214DF20C5001F0B3FBF4217E
:104E20004DF20D5001F0AEFB01214DF20E5001F09C
:104E3000A9FB23214DF20F5001F0A4FB01214DF2FB
:104E4000105001F09FFB49214DF2115001F09AFBE7
:104E500001214DF2125001F095FB87214DF21350C4
:104E600001F090FB01214DF2145001F08BFBB621B3
:104E70004DF2155001F086FB02214DF2165001F063
:104E800081FB00214DF2175001F07CFB02214DF215
:104E9000185001F077FB3B214DF2195001F072FBE5
:104EA00002214DF21A5001F06DFB3D214DF21B50D5
:104EB00001F068FB02214DF21C5001F063FB7521EB
:104EC0004DF21D5001F05EFB02214DF21E5001F02B
:104ED00059FBB1214DF21F5001F054FB02214DF25C
:104EE000205001F04FFBD5214DF2215001F04AFB3B
:104EF00003214DF2225001F045FB09214DF22350D0
:104F000001F040FB03214DF2245001F03BFB28212E
:104F10004DF2255001F036FB03214DF2265001F0F1
:104F200031FB52214DF2275001F02CFB03214DF2B1
:104F3000285001F027FB6B214DF2295001F022FB94
:104F400003214DF22A5001F01DFB8D214DF22B5013
:104F500001F018FB03214DF22C5001F013FBA221AC
:104F60004DF22D5001F00EFB03214DF22E5001F0B9
:104F700009FBBB214DF22F5001F004FB03214DF240
:104F8000305001F0FFFAC1214DF2315001F0FAFA30
:104F900003214DF2325001F0F5FAC1214DF23350A8
:104FA00001F0F0FA00214FF4564001F0EBFA3721FE
:104FB0004DF2016001F0E6FA00214DF2026001F0CD
:104FC000E1FA53214DF2036001F0DCFA00214DF2C9
:104FD000046001F0D7FA79214DF2056001F0D2FAB0
:104FE00000214DF2066001F0CDFA97214DF20760E5
:104FF00001F0C8FA00214DF2086001F0C3FAB121B6
:105000004DF2096001F0BEFA00214DF20A6001F094
:10501000B9FAD5214DF20B6001F0B4FA00214DF23E
:105020000C6001F0AFFAF4214DF20D6001F0AAFA24
:1050300001214DF20E6001F0A5FA23214DF20F601F
:1050400001F0A0FA01214DF2106001F09BFA492114
:105050004DF2116001F096FA01214DF2126001F05B
:1050600091FA87214DF2136001F08CFA01214DF283
:10507000146001F087FAB6214DF2156001F082FA52
:1050800002214DF2166001F07DFA00214DF2176009
:1050900001F078FA02214DF2186001F073FA3B2119
:1050A0004DF2196001F06EFA02214DF21A6001F022
:1050B00069FA3D214DF21B6001F064FA02214DF2C4
:1050C0001C6001F05FFA75214DF21D6001F05AFA83
:1050D00002214DF21E6001F055FAB1214DF21F6020
:1050E00001F050FA02214DF2206001F04BFAD52177
:1050F0004DF2216001F046FA03214DF2226001F0E9
:1051000041FA09214DF2236001F03CFA03214DF2EE
:10511000246001F037FA28214DF2256001F032FABF
:1051200003214DF2266001F02DFA52214DF2276045
:1051300001F028FA03214DF2286001F023FA6B21D7
:105140004DF2296001F01EFA03214DF22A6001F0B0
:1051500019FA8D214DF22B6001F014FA03214DF262
:105160002C6001F00FFAA2214DF22D6001F00AFA35
:1051700003214DF22E6001F005FABB214DF22F60A4
:1051800001F000FA03214DF2306001F0FBF9C1217A
:105190004DF2316001F0F6F903214DF2326001F079
:1051A000F1F9C1214DF2336001F0ECF955214FF4D2
:1051B000704001F0E7F9AA214FF2010001F0E2F995
:1051C00052214FF2020001F0DDF908214FF20300F5
:1051D00001F0D8F900214FF2040001F0D3F90021C9
:1051E0004FF4304001F0CEF905214BF2010001F0FF
:1051F000C9F902214BF2020001F0C4F905214BF27A
:10520000030001F0BFF902214BF2040001F0BAF9EA
:1052100008214FF4364001F0B5F950214FF43540E4
:1052200001F0B0F905214FF4364001F0ABF900214F
:105230004FF4374001F0A6F900214BF2017001F064
:10524000A1F901214FF4384001F09CF905214BF6FA
:10525000010001F097F905214BF6020001F092F9E7
:1052600005214BF6030001F08DF902214FF43C407B
:1052700001F088F900214BF6014001F083F900218B
:105280004BF6024001F07EF903214FF44C4001F04F
:1052900079F900214CF6014001F074F900214CF637
:1052A000024001F06FF901214FF43D4001F06AF92D
:1052B00084214BF6015001F065F907214BF60250AD
:1052C00001F060F931214BF6035001F05BF9002148
:1052D0004BF6045001F056F901214FF43A4001F029
:1052E00051F9AA214FF47F4001F04CF955214FF6B6
:1052F000017001F047F925214FF6027001F042F9E3
:1053000001214FF6037001F03DF940214FF4585050
:1053100001F038F900214FF4545001F033F9052120
:105320004FF4685001F02EF94FF4885001F014F951
:105330007820FDF759FB4FF4245001F00DF90A20B5
:10534000FDF752FB4FF4305001F006F910BD10B5D7
:10535000E22001F001F91D2001F0F2F8022001F035
:10536000EFF8042001F0ECF86420FDF747FBE020A3
:1053700001F0F2F8012001F0E3F80A20FDF734FB18
:10538000E02001F0E9F8032001F0DAF80C20FDF745
:105390002BFB012001F0E0F80A20FDF725FBE620B9
:1053A00001F0DAF82F2001F0CBF8FF2001F0C8F867
:1053B000FF2001F0C5F8B02001F0CEF8202001F068
:1053C000BFF8002001F0BCF8032001F0B9F840F26A
:1053D0001F3001F0B5F8012001F0B2F840F2DF1003
:1053E00001F0AEF8002001F0ABF8B42001F0B4F801
:1053F000042001F0A5F840F21F4001F0A1F80020C0
:1054000001F09EF82E2001F09BF8002001F098F8A2
:10541000002001F095F8002001F092F8002001F042
:105420008FF8B62001F098F8022001F089F84FF4C7
:10543000037001F085F8002001F082F8172001F0D8
:105440007FF8152001F07CF8002001F079F80020A9
:1054500001F076F8F02001F07FF8032001F070F8F9
:10546000292001F079F8D02001F076F8002001F031
:1054700067F8BE2001F070F8052001F061F8FE2009
:1054800001F05EF8012001F05BF8002001F058F80F
:10549000002001F055F8002001F052F8B82001F08A
:1054A0005BF8032001F04CF8012001F049F8BA2024
:1054B00001F052F8012001F043F810BD10B51120A1
:1054C00001F04AF87820FDF78FFA362001F044F811
:1054D000002001F035F83A2001F03EF8052001F0F7
:1054E0002FF8B22001F038F80C2001F029F80C2038
:1054F00001F026F8002001F023F8332001F020F815
:10550000332001F01DF8B72001F026F8352001F016
:1055100017F8BB2001F020F8322001F011F8C0206C
:1055200001F01AF80C2001F00BF8C22001F014F879
:10553000012001F005F8C32001F00EF8102000F062
:10554000FFFFC42001F008F8202000F0F9FFC6207A
:1055500001F002F80F2000F0F3FFD02000F0FCFF74
:10556000A42000F0EDFFA12000F0EAFFE02000F011
:10557000F3FFD02000F0E4FF002000F0E1FF022064
:1055800000F0DEFF072000F0DBFF0A2000F0D8FF6C
:10559000282000F0D5FF322000F0D2FF442000F098
:1055A000CFFF422000F0CCFF062000F0C9FF0E2004
:1055B00000F0C6FF122000F0C3FF142000F0C0FF6F
:1055C000172000F0BDFFE12000F0C6FFD02000F062
:1055D000B7FF002000F0B4FF022000F0B1FF072069
:1055E00000F0AEFF0A2000F0ABFF282000F0A8FF7B
:1055F000312000F0A5FF542000F0A2FF472000F06A
:105600009FFF0E2000F09CFF1C2000F099FF172048
:1056100000F096FF1B2000F093FF1E2000F090FF8B
:105620002A2000F099FF002000F08AFF002000F0FF
:1056300087FF002000F084FFEF2000F081FF2B2087
:1056400000F08AFF002000F07BFF002000F078FFD0
:10565000012000F075FF3F2000F072FF292000F0CC
:105660007BFF10BD10B5112000F076FF7820FDF70C
:10567000BBF9362000F070FF482000F061FF3A20AF
:1056800000F06AFF552000F05BFFF02000F064FF9F
:10569000C32000F055FFF02000F05EFF962000F0E0
:1056A0004FFFB42000F058FF012000F049FFB62062
:1056B00000F052FF0A2000F043FFA22000F040FF5C
:1056C000B72000F049FFC62000F03AFFB92000F0F3
:1056D00043FF022000F034FFE02000F031FFC02043
:1056E00000F03AFF802000F02BFF162000F028FF8A
:1056F000C12000F031FF192000F022FFC22000F08D
:105700002BFFA72000F01CFFC52000F025FF16206E
:1057100000F016FFE82000F01FFF402000F010FF0F
:105720008A2000F00DFF002000F00AFF002000F0AA
:1057300007FF292000F004FF192000F001FFA52039
:1057400000F0FEFE332000F0FBFEE02000F004FF3E
:10575000F02000F0F5FE072000F0F2FE0D2000F032
:10576000EFFE042000F0ECFE052000F0E9FE14201E
:1057700000F0E6FE362000F0E3FE542000F0E0FEEC
:105780004C2000F0DDFE382000F0DAFE132000F09F
:10579000D7FE142000F0D4FE2E2000F0D1FE3420DD
:1057A00000F0CEFEE12000F0D7FEF02000F0C8FEB1
:1057B000102000F0C5FE142000F0C2FE0E2000F004
:1057C000BFFE0C2000F0BCFE082000F0B9FE352022
:1057D00000F0B6FE442000F0B3FE4C2000F0B0FE16
:1057E000262000F0ADFE102000F0AAFE122000F0EE
:1057F000A7FE2C2000F0A4FE322000F0A1FEF02035
:1058000000F0AAFE3C2000F09BFEF02000F0A4FE79
:10581000692000F095FE7820FDF7E6F8212000F0E1
:105820009BFE292000F098FE10BD00002DE9F04FEE
:1058300005460E4617469846DDF824A04FF0000BAB
:10584000781B401C1FFA80FB344613E02146284693
:1058500000F032FC00F08CFE4FF0000906E0074932
:10586000A1F800A009F101001FFA80F9D945F6DB83
:10587000601C84B24445E9DDBDE8F08F8000006C17
:1058800000B595B000BF00BF00200190F848006847
:1058900040F04000F64908600846006800F040000B
:1058A000019000BF00BF00BF00BF00BF00200190FB
:1058B0000846006840F0080008600846006800F0EC
:1058C0000800019000BF00BF00BF00BF00BF002064
:1058D00001900846006840F008000860084600682B
:1058E00000F00800019000BF00BF00BF00BF00BF74
:1058F000002001900846006840F02000086008463B
:10590000006800F02000019000BF00BF00BF00BF92
:1059100000BF002001900846006840F002000860C7
:105920000846006800F00200019000BF00BF00BF01
:1059300088141090022011900120129002201390E0
:105940000C20149010A9CB48FBF750FB202010909E
:1059500010A9C948FBF74AFB1020109010A9C648AF
:10596000FBF744FB4FF48050109010A9C348FBF79D
:105970003DFB4FF4004010900120119010A9C04849
:10598000FBF734FB4FF02040BE490860BE4848603A
:10599000062088600021BB48C160102141610021C0
:1059A0008161C16141624FF4805181620021C16215
:1059B0004FF4804101630021416381630F2009900E
:1059C00000200A903C200B9000200F9009200290AC
:1059D00000200390092004900020089002AA09A941
:1059E000A848FCF75BF83220FCF7FEFFD32000F05C
:1059F000B3FD00F0EBF9A549888000F0E7F9A34971
:105A0000888000F0E3F9A1498880084680884FF635
:105A1000FF7101EA00209D49888000F0D7F99B4979
:105A200089880843994988800846808849F241312D
:105A300088427CD0042000F08FFD00F0C7F9934924
:105A4000888000F0C3F99149888000F0BFF98F4940
:105A50008880084680884FF6FF7101EA00208B4954
:105A6000888000F0B3F9894989880843874988808C
:105A70000846808848F25251884203D147F2897023
:105A8000824988808148808847F289718842D0D0D5
:105A9000D42000F061FD00F099F97C49888000F085
:105AA00095F97A49888000F091F97849888008460C
:105AB00080884FF6FF7101EA00207449888000F069
:105AC00085F972498988084370498880084680882A
:105AD00045F210318842ACD0D32000F03DFD00F0FB
